:020000040000FA
:100000000C944F070C9477070C9477070C947707A0
:100010000C9477070C9477070C9477070C94770768
:100020000C9477070C9477070C9477070C94770758
:100030000C9477070C9477070C9477070C94770748
:100040000C9499180C9477070C9467180C94411829
:100050000C9477070C9477070C9477070C94770728
:100060000C94E3180C947707000103070F1F3F7FE0
:100070000080C0E0F0F8FCFE00000000003E5B4F96
:100080005B3E3E6B4F6B3E1C3E7C3E1C183C7E3CF8
:10009000181C577D571C1C5E7F5E1C00183C180006
:1000A000FFE7C3E7FF0018241800FFE7DBE7FF3096
:1000B000483A060E2629792926407F050507407F04
:1000C00005253F5A3CE73C5A7F3E1C1C08081C1C77
:1000D0003E7F14227F22145F5F005F5F06097F016D
:1000E0007F006689956A606060606094A2FFA29458
:1000F00008047E040810207E201008082A1C080826
:100100001C2A08081E101010100C1E0C1E0C303873
:100110003E3830060E3E0E06000000000000005F74
:1001200000000007000700147F147F14242A7F2A90
:100130001223130864623649562050000807030052
:10014000001C2241000041221C002A1C7F1C2A089E
:10015000083E080800807030000808080808000001
:1001600060600020100804023E5149453E00427F75
:10017000400072494949462141494D331814127FC4
:100180001027454545393C4A494931412111090764
:100190003649494936464949291E000014000000E5
:1001A00040340000000814224114141414140041B7
:1001B00022140802015909063E415D594E7C121174
:1001C000127C7F494949363E414141227F414141AC
:1001D0003E7F494949417F090909013E4141517327
:1001E0007F0808087F00417F41002040413F017F98
:1001F000081422417F404040407F021C027F7F0460
:1002000008107F3E4141413E7F090909063E4151A8
:10021000215E7F09192946264949493203017F0198
:10022000033F4040403F1F2040201F3F4038403F99
:10023000631408146303047804036159494D4300AF
:100240007F4141410204081020004141417F0402E6
:10025000010204404040404000030708002054547D
:1002600078407F284444383844444428384444285B
:100270007F385454541800087E090218A4A49C78AE
:100280007F0804047800447D40002040403D007F0A
:100290001028440000417F40007C047804787C08EA
:1002A0000404783844444438FC18242418182424BE
:1002B00018FC7C08040408485454542404043F44A3
:1002C000243C4040207C1C2040201C3C4030403CD2
:1002D00044281028444C9090907C4464544C440032
:1002E0000836410000007700000041360800020196
:1002F0000204023C2623263C1EA1A161123A404082
:10030000207A3854545559215555794122545478FE
:1003100042215554784020545579400C1E52721297
:100320003955555559395454545939555454580020
:1003300000457C410002457D420001457C407D1224
:1003400011127DF0282528F07C5455450020545486
:100350007C547C0A097F4932494949323A44444431
:100360003A324A4848303A4141217A3A424020786C
:10037000009DA0A07D3D4242423D3D4040403D3C6D
:1003800024FF2424487E4943662B2FFC2F2BFF0992
:1003900029F620C0887E0903205454794100004486
:1003A0007D413048484A32384040227A007A0A0A71
:1003B000727D0D19317D2629292F282629292926E4
:1003C00030484D4020380808080808080808382F29
:1003D00010C8ACBA2F102834FA00007B00000814B3
:1003E0002A142222142A14085500550055AA55AA89
:1003F00055AAFF55FF55FF000000FF00101010FF29
:1004000000141414FF001010FF00FF1010F010F083
:10041000141414FC001414F700FF0000FF00FF1474
:1004200014F404FC141417101F10101F101F1414C0
:10043000141F00101010F0000000001F101010100A
:100440001F10101010F010000000FF1010101010FE
:1004500010101010FF10000000FF140000FF00FF3C
:1004600000001F10170000FC04F4141417101714D8
:1004700014F404F40000FF00F714141414141414FA
:10048000F700F7141414171410101F101F1414146D
:10049000F4141010F010F000001F101F0000001FD7
:1004A00014000000FC140000F010F01010FF10FF0A
:1004B000141414FF141010101F00000000F010FF9F
:1004C000FFFFFFFFF0F0F0F0F0FFFFFF0000000083
:1004D00000FFFF0F0F0F0F0F3844443844FC4A4A07
:1004E0004A347E02020606027E027E0263554941BC
:1004F000633844443C04407E201E2006027E0202F3
:1005000099A5E7A5991C2A492A1C4C7201724C3006
:100510004A4D4D303048784830BC625A463D3E49DD
:100520004949007E0101017E2A2A2A2A2A44445F81
:10053000444440514A444040444A51400000FF0175
:1005400003E080FF000008086B6B08361236243683
:10055000060F090F060000181800000010100030E8
:1005600040FF0101001F01011E00191D1712003C70
:100570003C3C3C00000000000000000800020100BC
:10058000000304070000000000000000000000005D
:10059000240027002A00DB40A4A62EAF2000A1C81B
:1005A000D300408DAED580A8010204081020408001
:1005B00001020408102001020408102000000000BD
:1005C000250028002B00040404040404040402028F
:1005D00002020202030303030303000060000000A1
:1005E0000000000000000000000000E0000000002B
:1005F00000000000000000000001E000000000001A
:10060000000000000000000001F0000000000000F9
:100610000000000000000003F000000000000000E7
:1006200000000000000007F00000000000000000D3
:10063000000000000007F8000000000000000000BB
:10064000000000000FF800000003C0007E00000161
:10065000E0007F0FF800000003C000FE000001E092
:1006600000FFEFF800000003C000FE000001E00002
:10067000FFFFF800000003C000F00000000F007F43
:10068000FE7FC0000003C000F00000000F003FFE2E
:100690007FF83FF1FBCFFCFEF3BC3DEFE01FFE7F98
:1006A000FF7FFBFFDFFEFEFFBC3DEFE01FC6FFFF4D
:1006B0007FFBFFDFFEFEFFBC3DEFE00FE3C7FE78F0
:1006C0007BC3DE1EF0FFBC3DEF0007FF87FC787B9D
:1006D000C3DE1EF0F83C3DEF0001FFFFF0007BC3DE
:1006E000C01EF0F03C3DEF0001F37FE03FFBC3CFC5
:1006F000FEF0F03C3DEF0003E33F807FFBC3DFFEF5
:10070000F0F03C3DEF0007E73C00787BC3DE1EF0D5
:10071000F03C3DEF0007FFBE00787BC3DE1EF0F02B
:100720003C3DEF0007FFFE00787BC3DE1EF0F03C8F
:100730003DEF000FFFFE007FFBFFDFFEF0F03FFD0F
:10074000EFE00FFFFF007FFBFFDFFEF0F03FFDEF6C
:10075000E00FF9FF003E79F9CF9EF0F01F3DE7E092
:100760001FF1FF0000000000000000000000001F5B
:1007700080FF007FFFFFFFFFFFFFFFFFFFE01C0088
:100780007F007FFFFFFFFEB46D888D18E000001F23
:10079000007FFFFFFFFE95AD7DB577E000000F0005
:1007A0007FFFFFFFFEA5AD9D8D19E0000006007FD5
:1007B000FFFFFFFEB5ADEDB57EE0000000000001DB
:1007C0008000000000000000000003800000000026
:1007D000000000000007C000000000000000000052
:1007E00007C00000000000000000000FC000000073
:1007F0000000000000001FE00000000000000000FA
:10080000001FE00000000000000000003FE00000CA
:10081000000000000000003FF000000000000000A9
:1008200000007FF0000000000000001FF87FF000D3
:100830000000000000003FFE7FF00000000000000C
:10084000003FFF7FF0000000000000001FFFFBE002
:10085000000000000000000FFFF9FFC000000000D2
:1008600000000FFFF9FFF800000000000007FFF193
:10087000FFFF00000000000003FC73FFFF8000008A
:1008800000000001FE3FFFFF80000000000000FFAD
:100890001E0FFF000000000000007FFE1FFC000094
:1008A00000000000003FFFFFF80000000000000013
:1008B0000FDFFFE0000000000000001F19FFC00074
:1008C0000000000000003F3CFF00000000000000AE
:1008D000007E7CF800000000000000007FFE7C002D
:1008E00000000000000000FFFFFC0000000000000E
:1008F0000000FFFFFE0000000000000000FFFFFE00
:100900000000000000000001FFEFFE0000000000FA
:10091000000001FFCFFE0000000000000003FF0701
:10092000FE0000000000000003FC07FE00000000C5
:1009300000000003F003FE00000000000000018042
:1009400000FE000000000000000000007E0000002B
:10095000000000000000003E000000000000000059
:1009600000000C000000000000078000FC000003F5
:10097000C0000000078001FC000003C00000000769
:100980008001FC000003C0000000078001E00000BF
:10099000001E000000078001E00000001E007FE351
:1009A000F79FF9FDE7787BDFC0FFF7FFBFFDFDFF95
:1009B000787BDFC0FFF7FFBFFDFDFF787BDFC0F076
:1009C000F787BC3DE1FF787BDE00F0F787BC3DE1B7
:1009D000F0787BDE0000F787803DE1E0787BDE0089
:1009E0007FF7879FFDE1E0787BDE00FFF787BFFDA3
:1009F000E1E0787BDE00F0F787BC3DE1E0787BDE6C
:100A000000F0F787BC3DE1E0787BDE00F0F787BCC3
:100A10003DE1E0787BDE00FFF7FFBFFDE1E07FFB1B
:100A2000DFC0FFF7FFBFFDE1E07FFBDFC07CF3F33A
:100A30009F3DE1E03E7BCFC00000000000000000D1
:100A4000000000FFFFFFFFFFFFFFFFFFFFC0FFFFF2
:100A5000FFFFFD68DB111A31C0FFFFFFFFFD2B5ABE
:100A6000FB6AEFC0FFFFFFFFFD4B5B3B1A33C0FF8C
:100A7000FFFFFFFD6B5BDB6AFDC04F76657272693D
:100A800064652072656365697665642C206475749D
:100A9000793A200000000000000000000000000083
:100AA0000000000000000000000000000000000046
:100AB000000000000000000000000007E00000004F
:100AC0000000000000000000000007FFFFE0000041
:100AD00000000000000000000000FFFFFFFF00001A
:100AE00000000000000000000007FFFFFFFFE00023
:100AF0000000000000000000003FFFFFFFFFFC00BF
:100B0000000000000000000000FFFFFFFFFFFF00EB
:100B1000000000000000000001FFFFFFFFFFFF805A
:100B2000000000000000000007FFFFFFFFFFFFE0E4
:100B300000000000000000000FFFFFFFFFFFFFF0BC
:100B400000000000000000001FFFFFFFFFFFFFF894
:100B500000000000000000003FFFFFFFFFFFFFFC60
:100B600000000000000000003FFFFFFFFFFFFFFC50
:100B700000000000000000007FFFFFFFFFFFFFFEFE
:100B800000000000000000007FFE3FFFFFFC7FFE32
:100B90000000000000000000FFFE0FFFFFF07FFFDD
:100BA0000000000000000000FFFC03FFFFC03FFF4B
:100BB0000000000000000000FFFE01FC3F807FFFFE
:100BC0000000000000000000FFFF00FC3F00FFFFEE
:100BD0000000000000000000FFFFC0781E03FFFFC0
:100BE0000000000000000000FFFFF0381C0FFFFFB6
:100BF0000000000000000000FFFFF0381C0FFFFFA6
:100C00000000000000000000FFFFF0781E0FFFFF53
:100C10000000000000000000FFFFF0781E0FFFFF43
:100C20000000000000000000FFFFE0F81F07FFFFCA
:100C30000000000000000000FFFFE0F81F07FFFFBA
:100C40000000000000000000FFFFC1F81F83FFFF4D
:100C500000000000000000007FFFC1F81F83FFFEBE
:100C600000000000000000007FFF83F81FC1FFFEAE
:100C700000000000000000007FFF87F81FE1FFFE7A
:100C800000000000000000007FFF07F81FE0FFFEEB
:100C900000000000000000003FFE0FF81FF07FFC86
:100CA00000000000000000003FFE0FF81FF07FFC76
:100CB00000000000000000003FFC1FF81FF83FFC90
:100CC00000000000000000003FFC1FF81FF83FFC80
:100CD00000000000000000001FFC0FF00FF03FF8C4
:100CE00000000000000000001FFC0FF00FF03FF8B4
:100CF00000000000000000001FFC03E007C03FF8F8
:100D000000000000000000000FFE000000007FF067
:100D100000000000000000000FFF00000000FFF0D6
:100D2000000000000000000007FF80018001FFE0DC
:100D3000000000000000000007FFE003C007FFE024
:100D4000000000000000000003FFFE3FFC7FFFC02A
:100D5000000000000000000003FFFFFFFFFFFFC0D6
:100D6000000000000000000001FFFFFFFFFFFF8008
:100D7000000000000000000001FFFFFFFFFFFF80F8
:100D8000000000000000000000FFFFFFFFFFFF0069
:100D90000000000000000000007FFFFFFFFFFE00DA
:100DA0000000000000000000007FFFFFFFFFFE00CA
:100DB0000000000000000000003FFFFFFFFFFC00FC
:100DC0000000000000000000001FFFFFFFFFF80010
:100DD0000000000000000000000FFFFFFFFFF00018
:100DE00000000000000000000007FFFFFFFFE00020
:100DF00000000000000000000003FFFFFFFFC00034
:100E000000000000000000000001FFFFFFFF800065
:100E100000000000000000000000FFFFFFFF0000D6
:100E2000000000000000000000003FFFFFFC000089
:100E3000000000000000000000001FFFFFF800009D
:100E40000000000000000000000007FFFFE00000BD
:100E50000000000000000000000000FFFF00000094
:100E6000000000000000000000000003C0000000BF
:100E70000000000000000000000000000000000072
:100E80000000000000000000000000000000000062
:100E9000000000002200FF210000021AF4261124A5
:100EA0001FBECFEFD8E0DEBFCDBF23E0A8E8B1E0A2
:100EB00001C01D92AB3FB207E1F711E0A0E0B1E045
:100EC000E8E5FBE502C005900D92A838B107D9F717
:100ED00017E0CEE4D7E004C02197FE010E94C729A5
:100EE000CD34D107C9F70E94BA1C0C949F2D0C94E5
:100EF0000000089508950895AF92BF92CF92DF92B7
:100F0000EF92FF920F931F93CF93DF936C017B01BE
:100F10008B01040F151FEB015E01AE18BF08C0174F
:100F2000D10759F06991D601ED91FC910190F081C2
:100F3000E02DC6010995892B79F7C501DF91CF9185
:100F40001F910F91FF90EF90DF90CF90BF90AF90E7
:100F50000895FC01538D448D252F30E0842F90E0BF
:100F6000821B930B541710F0CF96089501970895A4
:100F7000FC01918D828D981761F0A28DAE0FBF2F6D
:100F8000B11D5D968C91928D9F5F9F73928F90E0C3
:100F900008958FEF9FEF0895FC01918D828D981732
:100FA00031F0828DE80FF11D858D90E008958FEF6F
:100FB0009FEF0895FC01918D228D892F90E0805C38
:100FC0009F4F821B91098F73992708958AE892E0B9
:100FD0000E94DA0721E0892B09F420E0822F08958E
:100FE00080E090E0892B29F00E94E60781110C94A3
:100FF00000000895FC01A48DA80FB92FB11DA35ABC
:10100000BF4F2C91848D90E001968F739927848F28
:10101000A689B7892C93A089B1898C91837080644B
:101020008C93938D848D981306C00288F389E02DEC
:1010300080818F7D80830895EF92FF920F931F939D
:10104000CF93DF93EC0181E0888F9B8D8C8D98137B
:101050001AC0E889F989808185FF15C09FB7F89487
:10106000EE89FF896083E889F989808183708064D3
:1010700080839FBF81E090E0DF91CF911F910F911E
:10108000FF90EF900895F62E0B8D10E00F5F1F4F2D
:101090000F731127E02E8C8D8E110CC00FB607FC3C
:1010A000FACFE889F989808185FFF5CFCE010E94CA
:1010B000FA07F1CFEB8DEC0FFD2FF11DE35AFF4F37
:1010C000F0829FB7F8940B8FEA89FB898081806258
:1010D000CFCFCF93DF93EC01888D8823B9F0AA8915
:1010E000BB89E889F9898C9185FD03C0808186FDE3
:1010F0000DC00FB607FCF7CF8C9185FFF2CF808132
:1011000085FFEDCFCE010E94FA07E9CFDF91CF91A5
:10111000089590E0FC01E858FA4F2491FC01E8554D
:10112000FA4F3491FC01EA53FA4FE491EE23C9F0EF
:10113000222339F0233001F1A8F4213019F12230B3
:1011400029F1F0E0EE0FFF1FE454FA4FA591B4919E
:101150008FB7F894EC91611126C030953E233C93F3
:101160008FBF08952730A9F02830C9F0243049F7FF
:10117000809180008F7D03C0809180008F77809365
:101180008000DFCF84B58F7784BDDBCF84B58F7DC2
:10119000FBCF8091B0008F778093B000D2CF809149
:1011A000B0008F7DF9CF3E2BDACFCF93DF9390E065
:1011B000FC01E855FA4F24918A539A4FFC0184911F
:1011C0008823D1F090E0880F991FFC01E457FA4F73
:1011D000A591B491FC01E454FA4FC591D4916111E9
:1011E0000EC09FB7F8948C91E22FE0958E238C93DC
:1011F0002881E223E8839FBFDF91CF9108958FB7C5
:10120000F894EC91E22BEC938FBFF6CF8E3008F080
:101210008E508770806480937C0080917A00806417
:1012200080937A0080917A0086FDFCCF80917800CF
:101230009091790008953FB7F89480913D02909184
:101240003E02A0913F02B091400226B5A89B05C086
:101250002F3F19F00196A11DB11D3FBFBA2FA92F35
:10126000982F8827BC01CD01620F711D811D911D32
:1012700042E0660F771F881F991F4A95D1F708959E
:101280008F929F92AF92BF92CF92DF92EF92FF9296
:101290004B015C010E941B096B017C010E941B0930
:1012A0006C197D098E099F09683E7340810591057F
:1012B000A8F321E0821A9108A108B10888EEC80EAF
:1012C00083E0D81EE11CF11C81149104A104B10437
:1012D00029F7FF90EF90DF90CF90BF90AF909F9055
:1012E0008F9008952FB7F8946091390270913A0267
:1012F00080913B0290913C022FBF08950F931F9362
:101300000E947209609392027093930280939402F8
:10131000909395028AE892E00E94B80797FF1DC05B
:101320000E947209009192021091930220919402FE
:1013300030919502601B710B820B930B00918E0212
:1013400010918F02209190023091910260177107E5
:1013500082079307F8F28FEF9FEF1F910F91089587
:101360000895FC016370668B8481958126813781A5
:10137000613039F0633029F0918780873387228785
:101380000895318720879387828708952F923F920F
:101390004F925F926F927F928F929F92AF92BF9285
:1013A000CF92DF92EF92FF920F931F93CF93DF9331
:1013B000CDB7DEB76A970FB6F894DEBF0FBECDBFCC
:1013C0009A8F898F7A8369834A01D22E18870F8377
:1013D0003701BC2CDC0159962D913C915A9721156F
:1013E000310509F015C118968D919C9119976817D0
:1013F00079070CF0D7C11A968D919C91481759071F
:101400000CF0D0C14C2C512CB6E0CB9E600D711D60
:1014100011247C876B87161617060CF0C3C1EA2DC2
:10142000F0E0FA87E98793E0EE0FFF1F9A95E1F766
:10143000F88BEF87CF01840F951F181619060CF053
:10144000B1C1A98DBA8D58968C91811104C0BFEAA3
:10145000BD1508F4D394A98DBA8DED91FC91119727
:101460000284F385E02DCD010995B5E0DB9EC00136
:101470001124E981FA81FC83EB83312C212C9C011E
:1014800028583F4F388F2F8B4A2D50E05E8B4D8B65
:10149000EF89F88DE20DF31D44919E828D82D12C4F
:1014A000C12C69817A81620D731D7A8B698B842FBF
:1014B00090E09C8B8B8BE98DFA8DA081B18140FFF0
:1014C00082C0F1E0BF126FC0AF126DC01C96ED91EB
:1014D000FC912F813885A4014C0D5D1D69897A89A5
:1014E000898D9A8D0995EB89FC89F595E7954E2FA5
:1014F0005FEFC51AD50A6D817E818D899E89680F3F
:10150000791F7E836D8398E0C916D10481F6AFEF11
:101510002A1A3A0AEB81FC81E40DF51DFC83EB836A
:10152000F5E02F16310409F0B3CF2F813885261549
:101530003705B9F0A98DBA8DED91FC91B1E0BB12E0
:1015400057C0AB1255C069817A816B5F7F4F0088AD
:10155000F189E02D830128E030E0A401898D9A8D86
:101560000995A98DBA8DED91FC9111970688F7899F
:10157000E02DCD016A960FB6F894DEBF0FBECDBF49
:10158000DF91CF911F910F91FF90EF90DF90CF905F
:10159000BF90AF909F908F907F906F905F904F9093
:1015A0003F902F9009941E96ED91FC91EF80F88466
:1015B00009851A8592014D815E816B817C81898DBF
:1015C0009A8D099590CF2F8138852615370509F416
:1015D0008ACF31E0B31207C0A31205C01C96ED916B
:1015E000FC91930178CF1E96ED91FC917301E0CFB1
:1015F0006B857C85641975090684F785E02D730178
:101600000F8518899201A401898D9A8D0995A9CF1A
:10161000F90134969491329745915491D91AB7E0D3
:10162000DB9E400D511D1124F901259134913C8B15
:101630002B8BFA0125903490FA01329674903196F2
:101640003491398B329664903196449041E04C1538
:1016500018F04A1508F07FC0662D062C000C770B99
:101660007C836B83842D042C000C990B9E838D83CB
:10167000A98DBA8DED91FC9111970284F385E02D2F
:10168000CD010995512CD12CC12CEA2DF0E0FA871F
:10169000E9872B2D30E03C872B87A401440D511D99
:1016A00047FC5A95588F4F8B69817A81660D711D61
:1016B00067FC7A957E876D877989C71608F051CFC8
:1016C0002C2D30E04D815E81420F531FA985BA85D4
:1016D0004A9FC0014B9F900D5A9F900D1124FC0111
:1016E000E80DF91DF88BEF87852D612C4F89588DFA
:1016F000420F531F5E8B4D8B671408F050C044247B
:101700004394480E877041F4C1010196EB89FC892E
:10171000E20DF31DD4901C01D7FE19C0A98DBA8D1E
:10172000ED91FC91662D70E0B1E0BB1219C0AB12D7
:1017300017C02D853E85620F731F0484F585E02D4B
:101740002F8138854D895E89898D9A8D0995DD0CAB
:101750006394842DD1CF1E821D821C821B8288CF70
:101760004B815C81640F751FAB85BC856A9FC0018E
:101770006B9F900D7A9F900D112469817A81680F7B
:10178000791F0684F785E02DEF80F88409851A8596
:101790009D014F855889898D9A8D0995D8CF570C11
:1017A000C3948ACF6A960FB6F894DEBF0FBECDBF42
:1017B000DF91CF911F910F91FF90EF90DF90CF902D
:1017C000BF90AF909F908F907F906F905F904F9061
:1017D0003F902F9008958F929F92AF92CF92EF9269
:1017E000FF920F931F93CF93DF93EC01262F898DE8
:1017F0009A8D009709F051C06A30D1F41D861C867D
:101800008D8948E0849F900111248E859F85820FE9
:10181000931F9F878E8781E090E0DF91CF911F918A
:101820000F91FF90EF90CF90AF909F908F90089581
:101830006D3089F3CC88AD888F898823C1F08C8581
:101840009D8536E0C39E800D911D112448855985E4
:101850004817590764F44E855F851D861C8638E05D
:10186000A39EC0011124840F951F9F878E87EA884D
:10187000FB88088919894E855F856C857D85CE0139
:101880000E94C6092C898C859D8546E0249F800D89
:10189000911D11249D878C87BECF6A3069F41D8607
:1018A0001C86FC013896E4912D898E859F85E29FE8
:1018B000800D911D1124ADCF6D3009F4ACCFFC012A
:1018C00034963491631708F4A6CF3296E491E61764
:1018D00008F4A1CFFC01329685909490462F431BCB
:1018E000342F47E0349F800C911C1124F401329670
:1018F00034913196E4913323A9F1EE2399F1CC8808
:10190000F4013596E491AD884F89442301F10E2E00
:10191000000CFF0BE30FF11DCE9EA001CF9E500DDA
:1019200011246C857D85460F571F6885798564175E
:1019300075076CF44E855F851D861C86FC01389604
:10194000E491AE9E400D511D11245F874E87EA88B9
:10195000FB88088919894E855F856C857D85CE0158
:101960000E94C609F4013496E4912C898C859D85EA
:10197000E29F800D911D11248DCF6F927F928F92E7
:101980009F92AF92BF92CF92DF92EF92FF920F930E
:101990001F93CF93DF93EC016B015A01390148018A
:1019A000E881F9810284F385E02D0995E881F981C8
:1019B0000288F389E02D87019301A501B601CE01CC
:1019C0000995A501480D591D41505109E881F9813A
:1019D0000288F389E02D9301B601CE010995E881D3
:1019E000F9810088F189E02D9401A501B601CE01AD
:1019F0000995C60CD71CB60161507109E881F981BF
:101A00000088F189E02D9401A501CE010995E881B6
:101A1000F9810688F789E02DCE01DF91CF911F91E2
:101A20000F91FF90EF90DF90CF90BF90AF909F907D
:101A30008F907F906F9009946F927F928F929F9278
:101A4000AF92BF92CF92DF92EF92FF920F931F93CC
:101A5000CF93DF935C01EB016A01490138018701F3
:101A6000DC01ED91FC916217730719F56416750698
:101A70002CF0962D872D3A01C92ED82E96012619C5
:101A800037092F5F3F4F048CF58DE02DA301BE0178
:101A9000C5010995DF91CF911F910F91FF90EF90B4
:101AA000DF90CF90BF90AF909F908F907F906F907E
:101AB00008954615570591F42617370724F0892D08
:101AC0004B01C22FD82F9E01281939092F5F3F4F94
:101AD000068CF78DE02DA601B401DACF0284F385E0
:101AE000E02D0995D501ED91FC910488F589E02D53
:101AF00083019401A601BE01C5010995D501ED91AF
:101B0000FC910688F789E02DC501DF91CF911F91E7
:101B10000F91FF90EF90DF90CF90BF90AF909F908C
:101B20008F907F906F900994EF92FF920F931F9385
:101B3000DC011A960D911C911B9718962D913C91E2
:101B40001997ED91FC9100A0F1A1E02D7B0150E0EF
:101B500040E070E060E009951F910F91FF90EF90D9
:101B600008954F925F926F927F928F929F92AF9261
:101B7000BF92CF92DF92EF92FF920F931F93CF937A
:101B8000DF936C012B015A0139014801DC01ED9111
:101B9000FC910284F385E02D0995E201640C751C2B
:101BA000D601ED91FC91C615D7055CF40088F1894A
:101BB000E02D87019401A501BE01C601099521967A
:101BC000EFCF0688F789E02DC601DF91CF911F91F5
:101BD0000F91FF90EF90DF90CF90BF90AF909F90CC
:101BE0008F907F906F905F904F9009948F929F920B
:101BF000AF92BF92CF92DF92EF92FF920F931F931B
:101C0000CF93DF93EC015B014A016901E881F9811F
:101C10000284F385E02D099595012C0D3D1D215081
:101C20003109E881F9810488F589E02D7801840182
:101C3000A401B501CE010995E881F9810688F789EB
:101C4000E02DCE01DF91CF911F910F91FF90EF908A
:101C5000DF90CF90BF90AF909F908F9009948F921C
:101C60009F92AF92BF92CF92DF92EF92FF920F932B
:101C70001F93CF93DF93EC015B014A016901780167
:101C8000E881F9810284F385E02D0995C80CD91CFF
:101C9000860101501109E881F9810488F589E02D58
:101CA0009501A401B501CE010995E881F981068865
:101CB000F789E02DCE01DF91CF911F910F91FF9019
:101CC000EF90DF90CF90BF90AF909F908F9009944E
:101CD000EF92FF920F931F93DC01ED91FC9100A016
:101CE000F1A1E02D09951F910F91FF90EF900895BC
:101CF0000F931F93DC01ED91FC91068CF78DE02D85
:101D000009951F910F9108950F931F93DC01ED9199
:101D1000FC91048CF58DE02D09951F910F9108958C
:101D2000DC01ED91FC910084F185E02D09943F9256
:101D30004F925F926F927F928F929F92AF92BF92DB
:101D4000CF92DF92EF92FF920F931F93CF93DF9387
:101D50005C017B014A016901390187E0680E711C51
:101D600093E0759467949A95E1F72B01400E511E0C
:101D700010E000E0312CD0E0C0E0CE018770992760
:101D8000330C892B59F4FE0183E0F595E7958A958C
:101D9000E1F7E00FF11FE80DF91D349037FE0AC09E
:101DA00021E030E0A701B5016C0F7D1F83E393E0D4
:101DB0000E94900E2196CC16DD06F9F68FEFE81AF8
:101DC000F80A060D171DE414F504A9F6DF91CF916A
:101DD0001F910F91FF90EF90DF90CF90BF90AF9049
:101DE0009F908F907F906F905F904F903F9008955D
:101DF0002F923F924F925F926F927F928F929F921B
:101E0000AF92BF92CF92DF92EF92FF920F931F9308
:101E1000CF93DF9300D000D000D0CDB7DEB73C0128
:101E20006A013E832D83FC82EB825801A41AB50A15
:101E3000B7FE03C0B194A194B1088D809E80861A2C
:101E4000970A97FE03C09194819491088A149B0489
:101E50005CF0902F812F0D811E819D838E839C2DA0
:101E60008D2D6B01692F782F0C151D055CF09D8160
:101E70008E817E836D83692F782F902F812F86012D
:101E8000C92ED82E1601201A310A2B012D813E8130
:101E9000421A530A57FE03C05194419451087101EC
:101EA00037FE03C03FEFE31AF30AF594E7948D8100
:101EB0009E81861797075CF5A1E0B0E0BA83A983FD
:101EC000C016D1064CF1D301ED91FC910484F58547
:101ED000E02D2B813C81A8016D817E818A149B04B9
:101EE0001CF04D815E81B801C3010995E418F50825
:101EF000F7FE0AC02D813E8189819A81280F391F02
:101F00003E832D83E20CF31C0F5F1F4FD9CF2FEFC1
:101F10003FEF3A832983D4CF26960FB6F894DEBFDD
:101F20000FBECDBFDF91CF911F910F91FF90EF902A
:101F3000DF90CF90BF90AF909F908F907F906F90E9
:101F40005F904F903F902F900895EF92FF920F93E4
:101F50001F93CF93DF93EC01EC80FD806E157F051E
:101F60000CF070C057FF04C0240F351F50E040E054
:101F70008E819F81FA01E20FF31F8E179F071CF4D9
:101F80009C01241B350B121613060CF05BC0922F1C
:101F9000842F8695869586958E9DD0018F9DB00D58
:101FA00011246A0F7B1FAF8DB8A1A60FB71F477012
:101FB00049F188E0841B482F682F70E0FB01E0594D
:101FC000FF4FE491281708F063C0621B71092FEFDF
:101FD00030E002C0359527956A95E2F7E22301309B
:101FE000110539F0B0F10230110561F58C91E82747
:101FF00002C08C91E82BEC93941720F12C813D8149
:10200000A20FB31FE92FE41BE83078F0023011056E
:1020100021F58E2F9C9190959C932C813D81A20F50
:10202000B31F88508830B0F7E770EE2359F0F0E026
:10203000E859FF4FE49101301105F9F010F1023039
:10204000110519F1DF91CF911F910F91FF90EF9042
:102050000895E0958C91E823CECF81E0011511051C
:1020600009F480E081959E2F8C932C813D81A20FF5
:10207000B31F98509830C0F7D7CF8C91E82BEC93D2
:10208000E1CFE0958C91E823FACF8C91E827F7CF48
:102090000130110509F4ADCFE0F20230110509F469
:1020A000A5CFAE0DBF1DAECF0F931F93CF93DF9380
:1020B00077FF04C0260F371F70E060E0DC01149644
:1020C000CD91DC91FB01E20FF31FCE17DF071CF46B
:1020D0009E01261B370B121613064CF5FA0157FD0D
:1020E0003796A3E0F595E795AA95E1F7EC9FD00127
:1020F000ED9FB00DFC9FB00D11246A0F7B1FDC011A
:102100005F96ED91FC91E60FF71F4770552781E030
:1021100090E001C0880F4A95EAF7482F0130110579
:1021200059F0A8F02E0F3F1F02301105E1F0DF91AA
:10213000CF911F910F9108952E0F3F1FE217F307C4
:10214000B1F38191DF011197842B8C93F7CF8095A8
:102150002E0F3F1FE217F30751F39191DF01119703
:1021600098239C93F7CFE217F30709F38191DF01DE
:10217000119784278C93F7CF0F931F93FA01DC01FB
:1021800056964C9156974230E9F04330A1F14130D8
:1021900061F514964D915C91DA01AE1BBF0BFD0108
:1021A000E21BF30B77FD0BC0DC0116964D915C91A1
:1021B0006417750724F4AB01BF010E9454101F91EE
:1021C0000F91089514964D915C91DA01A61BB70BFF
:1021D000BD0161507109DC0116964D915C91DA01E7
:1021E000AE1BBF0BFD01E21BF30B77FDE8CFAF0188
:1021F0000E94A50FE4CF16964D915C91DA01A61BC3
:10220000B70BBD0161507109CDCF0F931F93FA0138
:10221000DC0156964C9156974230A9F0433091F12B
:10222000413019F514964D915C91DA01AE1BBF0B4C
:10223000FD013197F7FD04C0AB01BF010E94A50F5E
:102240001F910F91089514964D915C91DA01A61B90
:10225000B70BBD01DC0116964D915C91DA01AE1B06
:10226000BF0BFD013197621B730BF7FDE9CFDC015A
:1022700016964D915C91E417F50714F7AF010E9493
:102280005410DECF16964D915C91DA01A61BB70B68
:10229000BD01621B730BCECFFC0177FD64C080854E
:1022A0009185681779070CF05EC057FD5CC0828588
:1022B0009385481759070CF056C086898230B1F0D3
:1022C000833029F1813041F484819581841B950B01
:1022D000AB01BC01615071092130310509F108F4ED
:1022E00043C02230310509F463C00895848195818B
:1022F000DC01A61BB70BBD01615071098681978176
:10230000DC01A41BB50BAD0141505109E5CF86811D
:102310009781861B970BBA01AC0141505109DCCF64
:10232000CA0157FD0796A3E095958795AA95E1F711
:10233000A481B5818A9F90018B9F300D9A9F300DAB
:102340001124620F731F078CF0A1E02DE60FF71F19
:102350004770552721E030E001C0220F4A95EAF787
:102360008081822B80830895CA0157FD079633E050
:10237000959587953A95E1F7A481B5818A9F90015B
:102380008B9F300D9A9F300D1124620F731F078CA5
:10239000F0A1E02DE60FF71F4770552781E090E090
:1023A00001C0880F4A95EAF7809590818923DACF9A
:1023B000CA0157FD079623E0959587952A95E1F781
:1023C000A481B5818A9F90018B9F300D9A9F300D1B
:1023D0001124620F731F078CF0A1E02DE60FF71F89
:1023E0004770552721E030E001C0220F4A95EAF7F7
:1023F00080818227B7CF08958EBD00000DB407FEFF
:10240000FDCF8EB508958CBD9DBD08952091EE0140
:10241000260F3327331F21323105ECF420911202AD
:10242000FC0190E080E0243069F082E00895A09102
:10243000EE012191AC0142535E4FA40FB52FB11DA7
:102440002C930196861798F38091EE01680F6093A4
:10245000EE0180E0089581E008951092120281E07B
:10246000809314021092130261E082E10E948908B5
:1024700061E083E10E948908E9EBF0E080818E7FD2
:10248000808380818D7F808388E48093B80085E499
:102490008093BC000895CF93DF9391E09093CD019A
:1024A0008823B9F0C091B800D091BA008091BC00E7
:1024B0008A7B8093BC0060E082E10E94890860E032
:1024C00083E10E9489080E942D12D093BA00C09324
:1024D000B800DF91CF910895E091470280914602C4
:1024E000E81730F4F0E0E855FE4F808190E0089561
:1024F0008FEF9FEF089590914702809146022FEF52
:102500003FEF981748F4E92FF0E0E855FE4F20819F
:1025100030E09F5F90934702C90108958091460281
:1025200090914702891B990B0895CF92DF92EF9209
:10253000FF920F931F93CF93DF937C01CB018A010E
:1025400020918902222389F0EB016B01C40ED51E74
:10255000CC15DD0569F06991D701ED91FC910190F1
:10256000F081E02DC7010995F3CF642F0E94061278
:10257000C801DF91CF911F910F91FF90EF90DF90F5
:10258000CF900895CF93DF931F92CDB7DEB76983C5
:10259000209189022223F9F020918602203258F0FE
:1025A00021E030E0FC013383228390E080E00F9053
:1025B000DF91CF91089580918702E82FF0E0E857EE
:1025C000FE4F998190838F5F80938702809386026C
:1025D00081E090E0ECCF61E0CE0101960E9406120E
:1025E000F7CFCF92DF92EF92FF920F931F93CF938B
:1025F000DF93D091860281E0D13208F09CC0C09177
:1026000088020E941B096B017C01809112028111DA
:102610006CC082E08093120281E0809314028FEFFD
:102620008093110210923602D0933502A8E8B1E0EF
:10263000E5E1F2E080E0D8138DC01092370280917E
:102640003702CC0FC82BC093370280911302813020
:1026500009F084C0109213020E941B096B017C01D7
:10266000809137028093BB008091C9019091CA018B
:10267000A091CB01B091CC01892B8A2B8B2BA1F09F
:102680000E941B090091C9011091CA012091CB0140
:102690003091CC016C197D098E099F090617170727
:1026A0002807390708F442C08091BC0083FDD8CFC9
:1026B00085EC8093BC000E941B096B017C0180911A
:1026C0001202823009F44CC0809111028F3F09F44C
:1026D00069C080911102803209F466C080911102B4
:1026E000803309F463C084E026C08091C9019091D1
:1026F000CA01A091CB01B091CC01892B8A2B8B2BE5
:1027000009F483CF0E941B090091C9011091CA01ED
:102710002091CB013091CC016C197D098E099F0964
:10272000061717072807390708F06FCF8091C801EF
:102730000E944B1285E0109287021092860210923E
:102740008902DF91CF911F910F91FF90EF90DF9061
:10275000CF9008959D9191938F5F6DCF85EEA9CF16
:102760008091C9019091CA01A091CB01B091CC0197
:10277000892B8A2B8B2B09F4A2CF0E941B09009175
:10278000C9011091CA012091CB013091CC016C1983
:102790007D098E099F09061717072807390708F0D2
:1027A0008ECFC4CF80E0C7CF82E0C5CF83E0C3CF58
:1027B000DF92EF92FF920F931F93CF93DF93EC0181
:1027C000D62E072F142F8D8D9E8D009709F44DC0A6
:1027D00029A131E030938902209388021092870268
:1027E00010928602DC01ED91FC910190F081E02DC8
:1027F00060E00995ED2CF02E01E0DD24D39411501A
:102800008D8D9E8D1F3F41F10032B0F00E94F1127C
:102810008D8D9E8D29A1D0928902209388021092DD
:10282000870210928602DC01ED91FC910190F0810B
:10283000E02D60E0099501E08D8D9E8DF70164919A
:10284000DC01ED91FC910190F081E02D09950F5F85
:10285000BFEFEB1AFB0AD3CFDF91CF911F910F91FE
:10286000FF90EF90DF900C94F112EDA5FEA5908102
:102870008BA9809589238083E62EF72E115070F165
:10288000F70184912B8D3C8D232B31F00E94FC119C
:10289000EFEFEE1AFE0AF2CF28E030E040E8E9A5BB
:1028A000FAA599A9582F5423A9F05081952B90830C
:1028B000EBA5FCA590815AA9952B9083EBA5FCA5CF
:1028C00050819AA99095952390834695215031097E
:1028D00031F7DECF508190959523E9CFDF91CF91ED
:1028E0001F910F91FF90EF90DF9008951F93CF936A
:1028F000DF93EC018D8D9E8D009721F1162F29A17C
:1029000031E030938902209388021092870210925E
:102910008602DC01ED91FC910190F081E02D60E0F8
:1029200009958D8D9E8DDC01ED91FC910190F081DA
:10293000E02D612F09958D8D9E8DDF91CF911F9197
:102940000C94F112ADA5BEA59C918BA9809589230D
:102950008C938B8D9C8D892B31F0862FDF91CF91BD
:102960001F910C94FC1128E030E080E8A9A5BAA5DD
:1029700099A9462F4823C1F04C91942B9C93ABA569
:10298000BCA59C914AA9942B9C93ABA5BCA54C914A
:102990009AA9909594239C9386952150310931F7FB
:1029A000DF91CF911F9108954C9190959423E6CF9C
:1029B000EF92FF920F931F93CF93DF938091500379
:1029C00090915103892B09F495C0209168033091AF
:1029D000690340916A0350916B0360E074E284EFF5
:1029E00090E00E94912920513109410951095695E1
:1029F0004795379527952093B80045E064E97EE038
:102A000083E393E00E94D81360913703615083E31E
:102A100093E00E9476142091390330913A03C90162
:102A2000079697FD079623E0959587952A95E1F7F8
:102A30002091370330913803829F8001839F100DCE
:102A4000929F100D1124C0915203D0915303809195
:102A50005003909151030C0F1D1F009709F489C07A
:102A60002091540331E03093890220938802109220
:102A7000870210928602DC01ED91FC910190F081B9
:102A8000E02D60E40995FF24F394EE24E394809113
:102A90005003909151030C171D0709F442C0BFE188
:102AA000BF15D0F40E94F112809150039091510310
:102AB00020915403E09289022093880210928702A9
:102AC00010928602DC01ED91FC910190F081E02DE5
:102AD00060E40995FF24F394809150039091510391
:102AE0006991DC01ED91FC910190F081E02D099557
:102AF000F394CDCF80914E0390914F03892B31F009
:102B000080917103909172030E940312E09162031D
:102B1000F09163039081809167038095892380837E
:102B20006CCF0E94F1128091500390915103892B38
:102B300009F460C020916C0330916D0340916E03E5
:102B400050916F0360E074E284EF90E00E9491295D
:102B500020513109410951095695479537952795D7
:102B60002093B800DF91CF911F910F91FF90EF90CC
:102B70000895E0916003F091610380819091660374
:102B8000892B80830C171D0771F2899120914E03C8
:102B900030914F03232B19F00E94FC11F3CF28E052
:102BA00030E040E8E0915C03F0915D0390916403B4
:102BB000582F5423D9F05081952B9083E0915E03D8
:102BC000F0915F03908150916503952B9083E09184
:102BD0005E03F0915F03508190916503909595237A
:102BE0009083469521503109E9F6CCCF50819095DC
:102BF0009523E3CFE0916203F0916303808190918C
:102C00006703892B8083AECF1F93CF93DF93EC01B3
:102C1000162F8D8D9E8D892BB1F12DA93EA94FA91F
:102C200058AD60E074E284EF90E00E949129205159
:102C300031094109510956954795379527952093B4
:102C4000B80066EA111167EACE010E9476148D8DF4
:102C50009E8D892B41F129AD3AAD4BAD5CAD60E065
:102C600074E284EF90E00E949129205131094109DA
:102C7000510956954795379527952093B800DF91D0
:102C8000CF911F9108958B8D9C8D892B21F08EAD56
:102C90009FAD0E940312EFA5F8A990818CA98095A1
:102CA00089238083CECFEFA5F8A980819CA9892BA9
:102CB0008083E5CF089590E080E008950E94F22A95
:102CC000FB0101900020E9F73197AF01461B570B3C
:102CD000DC01ED91FC910280F381E02D09948F924B
:102CE0009F92AF92BF920F931F93CF93DF93CDB775
:102CF000DEB7A1970FB6F894DEBF0FBECDBF19A205
:102D0000423008F44AE08E010F5D1F4F842E912C53
:102D1000B12CA12CA50194010E949129E62FB901A3
:102D2000CA01EA3004F5E05DD801EE938D01232B52
:102D3000242B252B79F790E080E0109729F0BD0136
:102D40008AE892E00E946016A1960FB6F894DEBF62
:102D50000FBECDBFDF91CF911F910F91BF90AF906C
:102D60009F908F900895E95CDFCF2F923F924F9212
:102D70005F926F927F928F929F92AF92BF92CF920B
:102D8000DF92EF92FF920F931F93CF93DF93CDB714
:102D9000DEB72D970FB6F894DEBF0FBECDBF4B0147
:102DA0005A01E0903B03F0903C0320914C0330919A
:102DB0004D033D872C8700914A0310914703612FF3
:102DC00070E07987688776E0179F100111242C5FE7
:102DD0003F4F3D832C832C853D852A5F3F4F3F83AA
:102DE0002E836C857D856E5F7F4F7B876A872C8500
:102DF0003D85285F3F4F3A8329833C01D701A401D9
:102E00002FEF3FEFF301D1903F01DD2009F487C0A0
:102E10006C857D85672B09F461C07AE0D71206C006
:102E2000E981FA81449150E040E0ECCFFDE0DF160B
:102E300049F3EC81FD81C490EE81FF816491DC1443
:102E400008F36D15F8F2EA85FB8565917491DC183D
:102E5000F7E0DF9E600D711D1124FB013296549046
:102E60003196E491FB01349644903196D490DB8204
:102E70003196E4910023D1F0C52CD12C6B81C60E84
:102E8000D11C67FDDA94E885F985CE9EB001CF9E0E
:102E9000700DDE9E700D1124640F751FE616F70687
:102EA0002CF4E981FA81449150E040E06B816103A8
:102EB000F0011124E40FF51FEA17FB070CF4DF0102
:102EC000519EE00DF11D112431972E173F070CF490
:102ED0009F01419E400D511D112494CF7AE0D716D9
:102EE00009F4A1CFEDE0DE1609F48CCF002341F008
:102EF000B101640F751FE616F70614F450E040E0C8
:102F0000B101640F751FFB0131972E173F070CF4B9
:102F10009F014A175B070CF4DA01AB0173CF2A1744
:102F20003B076CF12A1B3B0B2F5F3F4F36952795D4
:102F3000821A930A9092400380923F03B092420318
:102F4000A0924103BC0183E393E02D960FB6F89461
:102F5000DEBF0FBECDBFDF91CF911F910F91FF90CC
:102F6000EF90DF90CF90BF90AF909F908F907F9029
:102F70006F905F904F903F902F900C94601630E0D0
:102F800020E0D4CFFC01868197819C01295F3F4FCF
:102F900037FF02C0295F3F4F83E0359527958A951B
:102FA000E1F784819581289FA001299F500D389FCA
:102FB000500D112470E060E0878D90A10C94F72AE9
:102FC0000F931F9383E393E00E94C21780913D0308
:102FD00090913E03BC016054710977FF02C06F5F9E
:102FE0007F4F7595679580913B0390913C03805886
:102FF000910997FD019600E410E020E830E044E9F3
:103000005AE0959587950E94970E1F910F910C9409
:10301000D81485ED8093BC008091C9019091CA01BC
:10302000A091CB01B091CC010796A11DB11D23E069
:10303000B695A795979587952A95D1F72091BC00CD
:1030400024FD03C01092120208954091C9015091CD
:10305000CA016091CB017091CC01452B462B472BC7
:1030600069F30097A105B10541F025E32A95F1F731
:1030700000000197A109B109E1CF8091C8010C942A
:103080004B121F920F920FB60F9211242F933F9362
:103090004F935F936F937F938F939F93AF93BF9360
:1030A000EF93FF938AE892E00E94FA07FF91EF9175
:1030B000BF91AF919F918F917F916F915F914F9150
:1030C0003F912F910F900FBE0F901F9018951F9258
:1030D0000F920FB60F9211242F938F939F93EF931C
:1030E000FF93E0919A02F0919B028081E091A0020F
:1030F000F091A10282FD1BC090818091A3028F5F9D
:103100008F732091A402821741F0E091A302F0E0B6
:10311000E657FD4F958F8093A302FF91EF919F910A
:103120008F912F910F900FBE0F901F901895808157
:10313000F4CF1F920F920FB60F9211242F933F934B
:103140008F939F93AF93BF938091390290913A02EE
:10315000A0913B02B0913C023091380223E0230F52
:103160002D3758F50196A11DB11D2093380280938B
:10317000390290933A02A0933B02B0933C028091B3
:103180003D0290913E02A0913F02B0914002019613
:10319000A11DB11D80933D0290933E02A0933F027A
:1031A000B0934002BF91AF919F918F913F912F912A
:1031B0000F900FBE0F901F90189526E8230F0296D0
:1031C000A11DB11DD2CF1F920F920FB60F921124E5
:1031D0002F933F934F935F936F937F938F939F931F
:1031E000AF93BF93EF93FF938091B900887F8036B0
:1031F00009F44AC0F0F5883209F4A7C018F5803107
:1032000009F49BC0B8F4882309F4F9C0883009F4A4
:1032100094C0FF91EF91BF91AF919F918F917F915A
:103220006F915F914F913F912F910F900FBE0F9033
:103230001F901895883109F488C0803251F7809327
:10324000110214C0803409F49DC040F48033B9F3F6
:103250008833F9F68093110285ECB0C0803509F40B
:1032600085C0883509F496C0883499F60E940918FB
:10327000D0CF883909F48CC038F5883729F050F45C
:10328000883611F0803729F683E08093120210927D
:10329000100257C0883809F47BC0803919F0803893
:1032A00009F0B7CF80911002803208F071C0E09130
:1032B000100281E08E0F809310028091BB00F0E03D
:1032C000E051FE4F80833DC0803B39F0E0F4803A0E
:1032D00009F479C0883A09F09CCF84E08093120207
:1032E0001092EF011092EE01E0914402F09145023C
:1032F00009958091EE0181110FC081E08093EE016C
:103300001092CE0109C0803C09F4A6CF883C09F494
:10331000A3CF883B09F07DCFE091EF0181E08E0FD4
:103320008093EF01F0E0E253FE4F80818093BB0079
:103330009091EF018091EE0129C080913702809336
:10334000BB0085EC8093BC0064CF909136028091E5
:103350003502981758F5E091360281E08E0F809380
:103360003602F0E0EB5EFD4F8081E9CFE09136025E
:1033700081E08E0F809336028091BB00F0E0EB5E1F
:10338000FD4F808390913602809135029817C8F2E4
:1033900085E8D8CFE091360281E08E0F8093360227
:1033A0008091BB00F0E0EB5EFD4F808380911402C2
:1033B00081115CCF81E08093130284EA8093BC008A
:1033C0001092120226CF85EC8093BC00109212025C
:1033D00080911002803230F4E0911002F0E0E05170
:1033E000FE4F10826091100270E0E0914202F09175
:1033F000430280EF91E00995109210020ACF1092DB
:10340000110234CF8F929F92AF92BF92CF92DF92F0
:10341000EF92FF920F931F93CF93DF9310928D0241
:1034200010928C0288EEC82E83E0D82EE12CF12C6D
:10343000C0928E02D0928F02E0929002F09291029E
:103440008AE091E090938B0280938A0285EC90E071
:10345000909397028093960284EC90E09093990267
:103460008093980280EC90E090939B0280939A0264
:1034700081EC90E090939D0280939C0282EC90E01E
:1034800090939F0280939E0286EC90E09093A1021D
:103490008093A0021092A3021092A4021092A5029F
:1034A0001092A60210922A0310922903C0922B03B5
:1034B000D0922C03E0922D03F0922E038CE191E048
:1034C000909328038093270380E090E0AAE7B4E478
:1034D0008093EB039093EC03A093ED03B093EE0382
:1034E00080E090E0AAEFBEE38093E1039093E203D3
:1034F000A093E303B093E4038DEC9CECACE4BEE357
:103500008093E5039093E603A093E703B093E80369
:103510008EE090E09093EA038093E9031092DB033E
:103520001092DC031092DD031092DE031092E00390
:103530001092DF030E9472096093F3037093F40307
:103540008093F5039093F6038091E9030E940609A6
:10355000BC01990F880B990B0E940A279B01AC01B3
:103560006091E1037091E2038091E3039091E403A1
:103570000E9469276093EF037093F0038093F10337
:103580009093F20387E090E09093DA038093D9035D
:1035900060E00E94D50806E813E01093AD030093A5
:1035A000AC038AE893E09093AB038093AA03C2E84C
:1035B000D3E0D093AF03C093AE031092C803109230
:1035C000C0031092C1031092C2031092C30380E0A3
:1035D00090E0AFE7B3E48093C4039093C503A09356
:1035E000C603B093C70384E690E0A0E0B0E0809308
:1035F000BC039093BD03A093BE03B093BF0310928E
:10360000A7031092A60381E090E09093A903809312
:10361000A8038093C90380E090E0A0E8BFE3809313
:103620008E0390938F03A0939003B09391038093A4
:10363000920390939303A0939403B0939503809384
:10364000960390939703A0939803B0939903809364
:103650009A0390939B03A0939C03B0939D038DECDE
:103660009CECACECBDE380939E0390939F03A093EE
:10367000A003B093A10380E090E0A0E2B1E48093C6
:10368000A2039093A303A093A403B093A5030E9465
:1036900072098090BC039090BD03A090BE03B090CF
:1036A000BF03681979098A099B096093B003709375
:1036B000B1038093B2039093B3038DE090E09093B5
:1036C000CB038093CA030E9472096093CC0370936A
:1036D000CD038093CE039093CF03C092D003D092BA
:1036E000D103E092D203F092D3031093D503009359
:1036F000D403D093D703C093D60361E08091CA036B
:103700000E94D5086091D0037091D1038091D203BB
:103710009091D3030E9408276B017C0120E030E0E8
:10372000A9010E94032718160CF068C01092C0036C
:103730001092C1031092C2031092C303C092C4033B
:10374000D092C503E092C603F092C7038091C803EC
:10375000882309F453C0C091AC03D091AD03888095
:103760009980AA80BB80A5019401C701B6010E947F
:10377000032787FF25C0C882D982EA82FB82809016
:10378000B4039090B503A090B603B090B703C09077
:10379000C403D090C503E090C603F090C703A7010F
:1037A0009601C501B4010E9473291816BCF4C09299
:1037B000B403D092B503E092B603F092B7031EC0F3
:1037C00020E030E0A901C501B4010E94032787FF72
:1037D000D6CF188219821A821B82D1CFC090C00323
:1037E000D090C103E090C203F090C303A7019601FB
:1037F000C501B4010E94032787FDD9CFE091D6030C
:10380000F091D70380E090E0A8ECB2E4808391834C
:10381000A283B38389E090E090937E0380937D033D
:1038200010927F038FE793E090938103809380034E
:1038300061E089E00E94D5088CE090E090937903E4
:103840008093780310927A038AE793E090937C0345
:1038500080937B0361E08CE00E94D50810923603D0
:103860001092350320E830E030933803209337037B
:1038700080E490E090933A038093390330933C03C3
:1038800020933B0390933E0380933D0310924903A2
:103890001092400310923F03109242031092410392
:1038A00081E080934803809347032FEF3FEF3093ED
:1038B00046032093450330934403209343038093AE
:1038C0004A0310924B0310924D0310924C03109236
:1038D0004F0310924E0387E293E09093510380933D
:1038E000500310925303109252038FEF80935703AB
:1038F000809358038093590380935A0380935B030A
:1039000080E89AE1A6E0B0E08093680390936903B1
:10391000A0936A03B0936B0380EA96E8A1E0B0E05D
:1039200080936C0390936D03A0936E03B0936F0329
:1039300080E580937103109272038EE291E0909380
:103940003403809333031092730310927403109224
:1039500075031092760310927703DF91CF911F9138
:103960000F91FF90EF90DF90CF90BF90AF909F901E
:103970008F900895CF93DF93CDB7DEB763970FB6DF
:10398000F894DEBF0FBECDBF789484B5826084BD4D
:1039900084B5816084BD85B5826085BD85B5816053
:1039A00085BD80916E00816080936E0010928100D1
:1039B000809181008260809381008091810081608C
:1039C000809381008091800081608093800080914D
:1039D000B10084608093B1008091B00081608093D9
:1039E000B00080917A00846080937A0080917A00A0
:1039F000826080937A0080917A00816080937A005F
:103A000080917A00806880937A001092C10083E1EF
:103A100090E0909382028093810288E190E09093FD
:103A200061028093600284E090E090936D02809345
:103A30006C02E0919A02F0919B0282E08083E09117
:103A40009A02F0919B021082E0919602F091970207
:103A50001082E0919802F091990280E180831092A7
:103A6000A202E0919E02F0919F0286E08083E091A5
:103A70009C02F0919D02808180618083E0919C0294
:103A8000F0919D02808188608083E0919C02F0919A
:103A90009D02808180688083E0919C02F0919D026C
:103AA00080818F7D80838091520390915303892B75
:103AB00021F183E393E00E94C217209139033091F2
:103AC0003A038091370390913803213231050CF08D
:103AD000DEC1B9016052710977FF02C06F5F7F4F8D
:103AE000759567958357910997FD019600E210E05F
:103AF00023E730E04AED55E0DDC1209139033091F4
:103B00003A03C901079697FD0796B3E09595879507
:103B1000BA95E1F72091370330913803AC01429F09
:103B2000C001439F900D529F900D11240E94CD29FA
:103B30009093530380935203892B09F0BACF0E94CC
:103B4000E01768EB7BE080E090E00E94400983E3AF
:103B500093E00E94C2170E94D81410926302109240
:103B600062020E9472090091F3031091F403209104
:103B7000F5033091F603601B710B820B930B0E94CF
:103B800008272091EB033091EC034091ED03509115
:103B9000EE030E94032787FF78C38091E9030E9408
:103BA0000609BC01990F880B990B0E940A272091E6
:103BB000E1033091E2034091E3035091E4030E945A
:103BC00069272091DB033091DC034091DD035091A4
:103BD000DE030E945F286093DB037093DC03809315
:103BE000DD039093DE038091DF039091E003019663
:103BF0009093E0038093DF038091EF039091F003B3
:103C0000A091F103B091F20380938A0390938B0308
:103C1000A0938C03B0938D0380917A03882361F085
:103C20000E9472092091640230916502621B730B3D
:103C300070936302609362028091620290916302CA
:103C400068EE73E00E947D29709385026093840280
:103C50008091770390917F03992309F488C481119F
:103C60007FC30E94720960937303709374038093FF
:103C70007503909376030E94E01710917F031093D1
:103C8000770320E030E040EF52E460918A037091C6
:103C90008B0380918C0390918D030E9473291816D9
:103CA0000CF06FC410928603109287031092880361
:103CB000109289038AE892E00E94DA071816190622
:103CC0000CF08CC08AE892E00E94B807009709F0D7
:103CD000A7C58AE892E00E9469088091EF0390915D
:103CE000F003A091F103B091F20380934A02909304
:103CF0004B02A0934C02B0934D0280917F038093BE
:103D0000480280917A0380934902E091D403F091B4
:103D1000D50320E030E048EC52E46081718182817B
:103D200093810E9469276B017C016091D00370919F
:103D3000D1038091D2039091D3030E9408279B0165
:103D4000AC01C701B6010E94CB2860934E0270936C
:103D50004F02809350029093510281E0809352026F
:103D6000809183028093530280918E0390918F0300
:103D7000A0919003B09191038093540290935502C7
:103D8000A0935602B09357028091920390919303AF
:103D9000A0919403B0919503809358029093590297
:103DA000A0935A02B0935B0280919603909197037F
:103DB000A0919803B091990380935C0290935D0267
:103DC000A0935E02B0935F02409160025091610245
:103DD00068E472E08AE892E00E947C070E9472091F
:103DE0000091CC031091CD032091CE033091CF03ED
:103DF000C090D003D090D103E090D203F090D303D1
:103E00004B015C01801A910AA20AB30AC814D904B2
:103E1000EA04FB0460F40C0D1D1D2E1D3F1D0093D4
:103E2000CC031093CD032093CE033093CF03F090B7
:103E3000CA030091D4031091D5038090CC039090D5
:103E4000CD03A090CE03B090CF03681979098A09F9
:103E50009B090E9408279B01AC01D8016D917D91BF
:103E60008D919C910E94732961E087FD60E08F2D08
:103E70000E948908E0E0F0E0EF2B09F472CE0E9486
:103E8000E607882309F46DCE0E9400006ACEB901CE
:103E90006054710977FF02C06F5F7F4F759567951A
:103EA0008255910997FD019600E410E022E530E08B
:103EB0004AEB57E0959587950E94970E82E0809394
:103EC00055038091500390915103892B09F4E7C069
:103ED0008CE3809354031092470210924602109292
:103EE0008702109286020E942D128AE797E0909333
:103EF0004502809344028BE797E0909343028093BE
:103F0000420280915B0387FD1EC061E00E94D508DC
:103F100061E080915B030E94890861E070E080E0CD
:103F200090E00E94400960E080915B030E94890854
:103F30006AE070E080E090E00E94400961E08091DA
:103F40005B030E9489088091500390915103892B53
:103F500009F464C1209168033091690340916A03B8
:103F600050916B0360E074E284EF90E00E9491292D
:103F700020513109410951095695479537952795A3
:103F80002093B80044E064EA75E083E393E00E9484
:103F9000D81360913903615083E393E00E94761453
:103FA00044E060EA75E083E393E00E94D8138091D7
:103FB000550360E1813009F064E183E393E00E94FE
:103FC000761444E06CE975E083E393E00E94D81333
:103FD0008FE8809370038091370390913803803885
:103FE000910509F034C18091390390913A038034EE
:103FF000910509F03CC180915503813009F025C13C
:104000008FE98093700312E16AED83E393E00E94ED
:104010007614612F83E393E00E94761461E883E3D2
:1040200093E00E9476146091700383E393E00E9412
:10403000761469ED83E393E00E9476148091550332
:1040400062E2813009F061EF83E393E00E9476142D
:1040500046E066E975E083E393E00E94D81380911F
:10406000500390915103892B09F405C120916C03F1
:1040700030916D0340916E0350916F0360E074E2E4
:1040800084EF90E00E9491292051310941095109A2
:1040900056954795379527952093B80050CD61E008
:1040A000809159030E94D50861E080915A030E94D3
:1040B000D50880915903082E000C990BFC01EA5396
:1040C000FA4FE491F0E0EE0FFF1FE454FA4F259110
:1040D00034913093610320936003FC01E855FA4F5B
:1040E000E491E093660380915A03082E000C990B2B
:1040F000FC01EA53FA4FE491F0E0EE0FFF1FE454A5
:10410000FA4FA591B491B0936303A0936203FC01AD
:10411000E855FA4FE491E09367038C91E82BEC9318
:1041200080914E0390914F03892B09F434C01FB73F
:10413000F89480914102811127C0E0EDF5E084916F
:10414000E2EBF5E09491E82FF0E0EE0FFF1FE4576B
:10415000FA4FA591B491EC91E92321F461E08AE052
:104160000E94890861E08AE00E94D5088CB58061D0
:104170008CBD8CB580648CBD61E08DE00E94D5085B
:1041800061E08BE00E94D508809141028F5F8093AF
:1041900041021FBFB6CE61E0809157030E94D5084F
:1041A00061E0809158030E94D50880915703082E42
:1041B000000C990BFC01EA53FA4FE491F0E0EE0F8A
:1041C000FF1FE454FA4F2591349130935D032093FF
:1041D0005C03FC01E855FA4FE491E093640380919D
:1041E0005803082E000C990BFC01EA53FA4FE49196
:1041F000F0E0EE0FFF1FE454FA4FA591B491B09395
:104200005F03A0935E03FC01E855FA4FE491E0934D
:1042100065038C91E095E823EC9373CE80914E0377
:1042200090914F03892B31F080917103909172032B
:104230000E940312E0916203F091630390818091E8
:1042400067038095892380839DCE8FECDACE8036FC
:10425000910569F48091390390913A03409739F4BC
:1042600080915503813029F480E18093700312E03E
:10427000CBCE8FEAFACFE0916203F09163038081A5
:1042800090916703892B80835ACC6091DF037091F2
:10429000E0036115710509F45BC0072E000C880B63
:1042A000990B0E940A279B01AC016091DB0370917E
:1042B000DC038091DD039091DE030E94CB284B014B
:1042C0005C01C090E503D090E603E090E703F09036
:1042D000E803A701960160E070E080E89FE30E9498
:1042E0005E282091EF033091F0034091F10350914B
:1042F000F2030E9469272B013C01A5019401C7012B
:10430000B6010E9469279B01AC01C301B2010E9462
:104310005F286093EF037093F0038093F103909311
:10432000F2031092DB031092DC031092DD03109273
:10433000DE031092E0031092DF030E947209609383
:10434000F3037093F4038093F5039093F60354CC36
:10435000812C60EC962E69E7A62E64E4B62EB1CFD0
:104360000E947209009173031091740320917503E8
:1043700030917603601B710B820B930B613D77408C
:104380008105910508F479CC83E393E00E94C2177C
:1043900081E090E09093460380934503909344031B
:1043A0008093430393E0909347039093480320E066
:1043B00030E040E05FE360918A0370918B0380916D
:1043C0008C0390918D030E945F280E943D297F936A
:1043D0006F93A6E5B1E0BF93AF9341E050E04C0F7F
:1043E0005D1F5F934F930E94FE2A46E050E063E218
:1043F00070E0CE0101960E94B51681E080934703DC
:104400008093480380934B0367EA83E393E00E9421
:10441000EB0B69E571E083E393E00E946016EE2404
:10442000E394F12C04E110E029E230E047E050E0B1
:1044300060E570E083E393E00E94BD0C82E080932E
:104440004703809348030F900F900F900F900F90A9
:104450000F9080918302811177C020E030E040E02E
:104460005FE3609182037091830380918403909154
:1044700085030E945F280E943D297F936F9386E504
:1044800091E09F938F93E1E0F0E0EC0FFD1FFF932D
:10449000EF930E94FE2A4AE050E066E670E0CE010B
:1044A00001960E94B5160F900F900F900F900F90ED
:1044B0000F9093E090934703909348038091840278
:1044C000909185026CE370E00E947D299F938F9309
:1044D0007F936F93AFE5B1E0BF93AF9341E050E0BE
:1044E0004C0F5D1F5F934F930E94FE2A85E190E081
:1044F0009093400380933F03A8E2B0E0B09342035F
:10450000A0934103BE016F5F7F4F83E393E00E945E
:10451000601620913B0330913C0321503109EE2479
:10452000E394F12C01E210E041E250E070E060E041
:1045300083E393E00E941C0D0E94D8140FB6F894F8
:10454000DEBF0FBECDBF99CB43E550E05093400393
:1045500040933F038AE090E09093420380934103AD
:104560006BE571E083E393E00E946016A2CF88239D
:1045700009F483CB83E393E00E94C2170E94D8140E
:104580007CCB80918302112309F443C1811141C185
:104590008091C803882309F48DCB0E9472096F8330
:1045A000788789879A878091B0039091B103A09111
:1045B000B203B091B3034F81588569857A85481B52
:1045C000590B6A0B7B0B8091BC039091BD03A091AA
:1045D000BE03B091BF03481759076A077B0708F469
:1045E00069CBE091AA03F091AB03408051806280D7
:1045F0007380E091AE03F091AF03A301920160815B
:104600007181828193810E945E286B017C012091DF
:10461000B8033091B9034091BA035091BB03C30171
:10462000B2010E945E286B877C878D879E872091D0
:104630009E0330919F034091A0035091A103C701B5
:10464000B6010E9469272091B4033091B5034091CF
:10465000B6035091B7030E945F284B015C01809222
:10466000B4039092B503A092B603B092B703F09151
:10467000C903FF87F1111CC020919A0330919B035D
:1046800040919C0350919D036B857C858D859E8513
:104690000E9469279B01AC01C501B4010E945E28FC
:1046A0006093B4037093B5038093B6039093B703FC
:1046B0008091B4039091B503A091B603B091B70374
:1046C000888B998BAA8BBB8B2090C4033090C50339
:1046D0000091C6031091C7039101A801BC01CD014F
:1046E0000E94732918160CF075C0C101D80180937F
:1046F000B4039093B503A093B603B093B7039F851B
:10470000992309F482C020919A0330919B03409130
:104710009C0350919D03C701B6010E9469276B015C
:104720007C012091A2033091A3034091A4035091F6
:10473000A5036B857C858D859E850E9469279B01DD
:10474000AC016091B4037091B5038091B603909170
:10475000B7030E945E28A70196010E945F286B01A3
:104760007C019B01AC01B101C8010E94032787FDB8
:1047700012C02090C0033090C1030091C203109179
:10478000C3039101A801B601C7010E94032787FD59
:1047900002C016018701E091AC03F091AD03C101A5
:1047A000D80180839183A283B3834092B80350924F
:1047B000B9036092BA037092BB038F819885A98573
:1047C000BA858093B0039093B103A093B203B093E2
:1047D000B30370CA8090C0039090C103A090C2033D
:1047E000B090C303A5019401688979898A899B895E
:1047F0000E94032787FF83CF8092B4039092B50372
:10480000A092B603B092B7037ACFC12CD12C760117
:1048100088CF823009F04ECA81E08093D8034ACA1B
:104820008130910509F0E0C100918102109182026E
:104830009EE6E92E92E0F92EC7018E56924080172F
:10484000910740F40E947E0997FD04C0D7018D9323
:104850007D01F2CF8AE892E00E946908809170029F
:10486000811174C11092D803109283024090750296
:104870005090760260907702709078028091710279
:1048800090917202A0917302B09174028B879C8701
:10489000AD87BE8720E030E0A901C301B2010E94CC
:1048A000032787FDB6C08090790290907A02A0908D
:1048B0007B02B0907C0220E030E0A901C501B40188
:1048C0000E94032787FDA5C0C0907D02D0907E0284
:1048D000E0907F02F090800220E030E0A901C70163
:1048E000B6010E94032787FD94C081E02091A803B0
:1048F0003091A9032130310509F080E08093C9038C
:1049000040928E0350928F036092900370929103B5
:104910008092920390929303A0929403B092950395
:10492000C0929603D0929703E0929803F092990375
:104930006091BC037091BD038091BE039091BF0351
:104940000E94082720E030E04AE754E40E94CB2888
:104950006F83788789879A8740929A0350929B0346
:1049600060929C0370929D039B01AC01C501B40150
:104970000E9469274B015C0180929E0390929F03E5
:10498000A092A003B092A1032F81388549855A8552
:10499000C701B6010E94CB286B017C01C092A20323
:1049A000D092A303E092A403F092A5038091A60302
:1049B0009091A703019769F5A301920160E070E06F
:1049C000CB010E945E2860939A0370939B038093AF
:1049D0009C0390939D03A501940160E070E0CB01DE
:1049E0000E945E2860939E0370939F038093A003B0
:1049F0009093A103A701960160E070E0CB010E94B3
:104A00005E286093A2037093A3038093A403909302
:104A1000A503E091D603F091D7038B859C85AD85E6
:104A2000BE8580839183A283B3838091C803811163
:104A300049C0E091AC03F091AD03C080D180E28029
:104A4000F380C092B403D092B503E092B603F09223
:104A5000B703E091AA03F091AB0380819181A28119
:104A6000B3818093B8039093B903A093BA03B09332
:104A7000BB038090C4039090C503A090C603B09080
:104A8000C703A5019401C701B6010E947329181636
:104A90004CF48092B4039092B503A092B603B09206
:104AA000B70310C08090C0039090C103A090C203D0
:104AB000B090C303A5019401C701B6010E9403276A
:104AC00087FDE7CF81E08093C80390916E028091CB
:104AD0007F03981779F080917D03992309F476C0BC
:104AE00091E090937F0361E00E9489081092630235
:104AF0001092620290916F0280917A039817C9F028
:104B000080917803992309F469C091E090937A0326
:104B100061E00E94890810926302109262020E9472
:104B200072096093640270936502809366029093A9
:104B3000670269E671E08AE892E00E94601669E720
:104B400071E08AE892E00E94601648C9813059F508
:104B500090918302913009F4B8CF1092D8038093DA
:104B600083021092C8030091D4031091D503609181
:104B7000D0037091D1038091D2039091D3030E940E
:104B8000082720E030E0A9010E94692720E030E0FA
:104B900048EC52E40E94CB28D8016D937D938D930D
:104BA0009C93139792CF823009F08FCF909183021C
:104BB000923009F48ACF80938302E091D403F0917C
:104BC000D50310821182128213827FCF10927F034D
:104BD00060E00E9489081092C8038CCF10927A037B
:104BE00060E00E948908A5CF029709F0F7C80091FC
:104BF0006C0210916D0288E6E82E82E0F82EC70163
:104C0000885692408017910740F40E947E0997FDD4
:104C100004C0F70181937F01F2CF8AE892E00E94FD
:104C20006908C0906802D0906902E0906A02F09032
:104C30006B0280918302813039F01092D80381E0B9
:104C4000809383021092C8030091D4031091D5037E
:104C50006091D0037091D1038091D2039091D303DE
:104C60000E940827A70196010E94692720E030E0F2
:104C700048EC52E40E94CB28D8016D937D938D932C
:104C80009C9313970AE71AE0F8016491662341F0B8
:104C90008AE892E00E941C080F5F1F4F892BA1F742
:104CA000C0906802D0906902E0906A02F0906B02B6
:104CB000A7019601C701B6010E9478296CE771E04F
:104CC000811139CF46015701E894B7F82FEF3FEF34
:104CD0004FE75FE7C501B4010E94782981110DC03B
:104CE0002FEF3FEF4FE75FE7C501B4010E940327B5
:104CF00018161CF460E871E01ECF2FEF3FEF4FE76E
:104D00005FE4C701B6010E94732918161CF464E819
:104D100071E011CF2FEF3FEF4FE75FECC701B60116
:104D20000E94032787FDF3CF20E030E0A901C701EF
:104D3000B6010E94032787FF09C06DE28AE892E06E
:104D40000E941C08F7FAF094F7F8F0942AE037ED87
:104D500043EA5BE3C701B6010E945F284B015C0197
:104D60000E9444296B017C010E9408279B01AC0131
:104D7000C501B4010E945E284B015C014AE0C701F5
:104D8000B6010E946F166EE28AE892E00E941C084B
:104D900020E030E040E251E4C501B4010E946927FF
:104DA0004B015C010E9444296B01F12CE12C4AE08B
:104DB000C701B6010E946F16C701B6010E940827FD
:104DC0009B01AC01C501B4010E945E2820E030E0E7
:104DD00040E251E40E9469270E94442990E080E06B
:104DE0004AE00E946F16ABCE8EE291E090933403BE
:104DF000809333038091520390915303009711F0F5
:104E00000C94692A08950E94452708F481E00895CA
:104E1000E89409C097FB3EF4909580957095619554
:104E20007F4F8F4F9F4F9923A9F0F92F96E9BB270A
:104E30009395F695879577956795B795F111F8CF86
:104E4000FAF4BB0F11F460FF1BC06F5F7F4F8F4FF1
:104E50009F4F16C0882311F096E911C0772321F0E7
:104E60009EE8872F762F05C0662371F096E8862F7F
:104E700070E060E02AF09A95660F771F881FDAF7D6
:104E8000880F9695879597F90895990F0008550F03
:104E9000AA0BE0E8FEEF16161706E807F907C0F0C0
:104EA00012161306E407F50798F0621B730B840BC8
:104EB000950B39F40A2661F0232B242B252B21F4A2
:104EC00008950A2609F4A140A6958FEF811D811D42
:104ED00008950E947C270C94ED270E94DF2738F06C
:104EE0000E94E62720F0952311F00C94D6270C940D
:104EF000DC2711240C9421280E94FE2770F3959F33
:104F0000C1F3950F50E0551F629FF001729FBB27C0
:104F1000F00DB11D639FAA27F00DB11DAA1F649F5C
:104F20006627B00DA11D661F829F2227B00DA11D0F
:104F3000621F739FB00DA11D621F839FA00D611D95
:104F4000221F749F3327A00D611D231F849F600DB6
:104F5000211D822F762F6A2F11249F5750409AF0DF
:104F6000F1F088234AF0EE0FFF1FBB1F661F771F6B
:104F7000881F91505040A9F79E3F510580F00C9436
:104F8000D6270C9421285F3FE4F3983ED4F386950E
:104F900077956795B795F795E7959F5FC1F7FE2BD6
:104FA000880F911D9695879597F9089597F99F67B2
:104FB00080E870E060E008959FEF80EC08950024A1
:104FC0000A941616170618060906089500240A946E
:104FD00012161306140605060895092E0394000CF4
:104FE00011F4882352F0BB0F40F4BF2B11F460FF83
:104FF00004C06F5F7F4F8F4F9F4F089557FD9058AC
:10500000440F551F59F05F3F71F04795880F97FB8C
:10501000991F61F09F3F79F0879508951216130646
:105020001406551FF2CF4695F1DF08C01616170675
:105030001806991FF1CF86957105610508940895AA
:10504000E894BB2766277727CB0197F908952F921D
:105050003F924F925F926F927F928F929F92AF9208
:10506000BF92CF92DF92EF92FF920F931F93CF9355
:10507000DF93CDB7DEB7CA1BDB0B0FB6F894DEBFEC
:105080000FBECDBF09942A88398848885F846E8412
:105090007D848C849B84AA84B984C884DF80EE805C
:1050A000FD800C811B81AA81B981CE0FD11D0FB665
:1050B000F894DEBF0FBECDBFED0108955058BB2759
:1050C000AA270E9476280C94ED270E94DF2738F04B
:1050D0000E94E62720F039F49F3F19F426F40C943F
:1050E000DC270EF4E095E7FB0C94D627E92F0E940D
:1050F000FE2758F3BA17620773078407950720F055
:1051000079F4A6F50C9420280EF4E0950B2EBA2F16
:10511000A02D0B01B90190010C01CA01A0011124BD
:10512000FF27591B99F0593F50F4503E68F11A1669
:10513000F040A22F232F342F4427585FF3CF4695FA
:1051400037952795A795F0405395C9F77EF41F161C
:10515000BA0B620B730B840BBAF09150A1F0FF0FE6
:10516000BB1F661F771F881FC2F70EC0BA0F621FD2
:10517000731F841F48F4879577956795B795F795C2
:105180009E3F08F0B0CF9395880F08F09927EE0F57
:105190009795879508950E94DF280C94ED270E942B
:1051A000E62758F00E94DF2740F029F45F3F29F0FE
:1051B0000C94D62751110C9421280C94DC270E94C2
:1051C000FE2768F39923B1F3552391F3951B550BF3
:1051D000BB27AA2762177307840738F09F5F5F4FCA
:1051E000220F331F441FAA1FA9F335D00E2E3AF009
:1051F000E0E832D091505040E695001CCAF72BD021
:10520000FE2F29D0660F771F881FBB1F2617370771
:105210004807AB07B0E809F0BB0B802DBF01FF27A3
:1052200093585F4F3AF09E3F510578F00C94D62783
:105230000C9421285F3FE4F3983ED4F3869577954C
:105240006795B795F7959F5FC9F7880F911D96955C
:10525000879597F90895E1E0660F771F881FBB1FB8
:10526000621773078407BA0720F0621B730B840B65
:10527000BA0BEE1F88F7E09508950E9444296894C0
:10528000B1110C94212808950E94062888F09F5798
:1052900098F0B92F9927B751B0F0E1F0660F771F5A
:1052A000881F991F1AF0BA95C9F714C0B13091F050
:1052B0000E942028B1E008950C942028672F782FB1
:1052C0008827B85F39F0B93FCCF386957795679515
:1052D000B395D9F73EF490958095709561957F4F81
:1052E0008F4F9F4F08950E94452708F48FEF089530
:1052F0000E944527880B990B089597FB072E16F4FB
:10530000009407D077FD09D00E94B32907FC05D08F
:105310003EF4909581959F4F0895709561957F4FCC
:105320000895A1E21A2EAA1BBB1BFD010DC0AA1FE6
:10533000BB1FEE1FFF1FA217B307E407F50720F0FE
:10534000A21BB30BE40BF50B661F771F881F991F79
:105350001A9469F760957095809590959B01AC01C2
:10536000BD01CF010895AA1BBB1B51E107C0AA1FB5
:10537000BB1FA617B70710F0A61BB70B881F991FF6
:105380005A95A9F780959095BC01CD010895EE0F2F
:10539000FF1F0590F491E02D09940F931F93CF9375
:1053A000DF938230910510F482E090E0E091F90300
:1053B000F091FA0330E020E0B0E0A0E0309799F4FB
:1053C0002115310509F44AC0281B390B2430310559
:1053D000D8F58A819B816115710589F1FB01938361
:1053E0008283FE0111C040815181028113814817DF
:1053F0005907E0F04817590799F4109761F0129691
:105400000C93129713961C933296CF01DF91CF9194
:105410001F910F9108950093F9031093FA03F4CFAD
:105420002115310551F04217530738F0A901DB016E
:105430009A01BD01DF01F801C1CFEF01F9CF9093CF
:10544000FA038093F903CDCFFE01E20FF31F81939E
:1054500091932250310939832883D7CF2091F703C4
:105460003091F803232B41F4209102013091030184
:105470003093F8032093F70320910001309101014C
:105480002115310541F42DB73EB7409104015091EB
:105490000501241B350BE091F703F091F803E217A7
:1054A000F307A0F42E1B3F0B2817390778F0AC0147
:1054B0004E5F5F4F2417350748F04E0F5F1F509324
:1054C000F8034093F703819391939FCFF0E0E0E0DE
:1054D0009CCFCF93DF930097E9F0FC0132971382C2
:1054E0001282A091F903B091FA03ED0130E020E0BF
:1054F0001097A1F420813181820F931F2091F7032F
:105500003091F8032817390709F061C0F093F803C8
:10551000E093F703DF91CF910895EA01CE17DF07FB
:10552000E8F54A815B819E0141155105B1F7E9011A
:10553000FB83EA8349915991C40FD51FEC17FD07EE
:1055400061F4808191810296840F951FE90199830E
:105550008883828193819B838A83F0E0E0E01296C6
:105560008D919C9113970097B9F52D913C911197CE
:10557000CD010296820F931F2091F7033091F8031B
:105580002817390739F6309751F51092FA0310921F
:10559000F903B093F803A093F703BCCFD383C2837E
:1055A00040815181840F951FC817D90761F44E5F60
:1055B0005F4F88819981480F591F518340838A81A9
:1055C0009B81938382832115310509F0B0CFF0933D
:1055D000FA03E093F9039ECFFD01DC01C0CF1382F3
:1055E0001282D7CF81E090E0F8940C949F2DDC01DB
:1055F00001C06D9341505040E0F70895AEE0B0E037
:10560000E4E0FBE20C9435280D891E8986E08C834A
:105610001A8309838FEF9FE79E838D83AE01475ED8
:105620005F4F6F89788DCE0101960E94212B2F81CB
:105630003885020F131FF80110822E96E4E00C94B7
:105640005128ABE0B0E0E7E2FBE20C9427287C01B4
:105650003B018A01FC0117821682838181FFC8C148
:10566000CE0101965C01F7019381F30193FD8591D1
:1056700093FF81913F01882309F453C1853239F4A6
:1056800093FD859193FF81913F01853229F4B70104
:1056900090E00E94112DE7CF912C212C312CFFE1BD
:1056A000F31538F08B3211F190F4803209F1833226
:1056B00029F137FC3CC020ED280F2A3050F536FE8A
:1056C00020C08AE0989E200D1124922E06C08D32B3
:1056D00091F0803371F7689430F8F30193FD859170
:1056E00093FF81913F018111DACF21C0689431F895
:1056F000689432F8F2CF689433F8EFCF689434F8B6
:10570000ECCFEAE02E9E200D1124222E689435F86D
:10571000E4CF8E3229F436FC04C1689436F8DDCF2C
:105720008C3619F4689437F8D8CF8836B1F2982FB0
:105730009F7D95549330E0F08336A1F18337C1F11A
:10574000833509F063C02801F2E04F0E511CF801C7
:10575000C080D180692D70E036FC02C06FEF7FEF12
:10576000C6010E94FB2C4C01689437F882010AC0E4
:105770000C5F1F4FFFE3F98388248394912C65010C
:10578000E89437F833FE2DC0522C8114910471F542
:10579000552009F468CFB70180E290E00E94112DF6
:1057A0005A94F6CFF801808189830E5F1F4FE4CFB2
:1057B0002801F2E04F0E511CF801C080D180692D04
:1057C00070E036FC02C06FEF7FEFC6010E94062D2D
:1057D0004C018201D5CFB70180E290E00E94112DEB
:1057E0002A942814190409F0B0F7CECFF60137FC3B
:1057F000859137FE81916F01B70190E00E94112DD4
:1058000051105A94F1E08F1A9108BFCF843619F0E5
:10581000893609F077C0F80137FE6BC0608171816D
:10582000828193810C5F1F4FF32DFF763F2E97FFF0
:1058300009C090958095709561957F4F8F4F9F4FD0
:10584000689437F82AE030E0A5010E94412DC82E67
:10585000CA188C2C432C36FE0CC0E89440F8C914AE
:1058600040F434FE05C032FC03C0F32DFE7E4F2E03
:10587000892C44FE95C0FE01EC0DF11D8081803322
:1058800009F087C0242D297E422E842D8870582E41
:1058900043FC95C040FE8FC09C2C821418F42C0C45
:1058A000922C981844FE91C0B70180E390E00E94CA
:1058B000112D42FE09C088E790E041FE02C088E554
:1058C00090E0B7010E94112DC91408F48AC0CA944F
:1058D000D12C9FEFC91AD90ACA0CDB1CF6018291A0
:1058E0006F01B70190E00E94112DAC14BD04B1F717
:1058F0004FCF60817181072E000C880B990B0E5FD2
:105900001F4F92CFD32CE894D4F82AE030E08537AB
:1059100039F1232D297FD22E8F3601F148F48835B5
:10592000A9F0F701868197812B96E2E10C94432838
:10593000803749F08837A9F7D4FE02C06894D2F8BE
:1059400020E130E00DC06894D4F8F6CF34FE03C0F7
:10595000822F8660D82E20E132E002C028E030E0BD
:10596000F801D7FE0FC060817181828193810C5F45
:105970001F4FA5010E94412DC82ECA183D2CE89446
:1059800037F867CF6081718190E080E00E5F1F4F34
:10599000F0CF42FC02C0839478CF8394839475CF78
:1059A000842D867809F471CFF6CFB70180E290E0BC
:1059B0000E94112D83948214C0F3512C73CF522C6A
:1059C0005818821408F46ECFF8CF842D867809F425
:1059D0007BCF8BE241FE80E247FC8DE2B70190E095
:1059E00071CFB70180E390E00E94112D9A946CCFA3
:1059F0008FEF9FEF99CFFC0105906150704001102F
:105A0000D8F7809590958E0F9F1F0895FC016150E7
:105A1000704001900110D8F7809590958E0F9F1FD0
:105A200008950F931F93CF93DF93182F092FEB0146
:105A30008B8181FD09C01FEF0FEF812F902FDF9128
:105A4000CF911F910F91089582FF14C02E813F8145
:105A50008C819D81281739073CF4E881F981CF01B9
:105A600001969983888310838E819F8101969F83FD
:105A70008E83E3CFE885F985812F0995892BA1F3E2
:105A8000DACFFA01AA27283051F1203181F1E894C8
:105A90006F936E7F6E5F7F4F8F4F9F4FAF4FB1E021
:105AA0003ED0B4E03CD0670F781F891F9A1FA11D1C
:105AB000680F791F8A1F911DA11D6A0F711D811D1D
:105AC000911DA11D20D009F468943F912AE0269FE2
:105AD00011243019305D3193DEF6CF010895462F41
