:100000000C9462000C948A000C948A000C948A0070
:100010000C948A000C948A000C948A000C948A0038
:100020000C948A000C948A000C948A000C948A0028
:100030000C948A000C948A000C948A000C948A0018
:100040000C9457080C948A000C9425080C94FF0714
:100050000C948A000C948A000C948A000C948A00F8
:100060000C94A1080C948A000000000024002700D2
:100070002A0000000000250028002B0000000000DE
:1000800023002600290004040404040404040202DA
:100090000202020203030303030301020408102007
:1000A0004080010204081020010204081020000012
:1000B0000008000201000003040700000000000027
:1000C0000000F10911241FBECFEFD8E0DEBFCDBF85
:1000D00023E0AEE9B1E001C01D92A23AB207E1F718
:1000E00011E0A0E0B1E0EEE8FCE202C005900D9264
:1000F000AE39B107D9F710E0C2E6D0E004C02197CD
:10010000FE010E941A15C136D107C9F70E94640C7E
:100110000C9445160C940000E0916202F091630289
:10012000309729F010926B0210926A020994089598
:10013000CF93DF93AC01E0916402F09165023097B8
:10014000F1F090916D0280916C029817C0F090E0F0
:10015000292F30E02617370754F4D901A753BE4F93
:10016000240F351FE90128812C939F5FF1CF109256
:100170006D0260936C02CB01DF91CF910994DF9106
:10018000CF910895AF92BF92CF92DF92EF92FF92FC
:100190000F931F93CF93DF936C017B018B01040FAF
:1001A000151FEB015E01AE18BF08C017D10759F04B
:1001B0006991D601ED91FC910190F081E02DC6018D
:1001C0000995892B79F7C501DF91CF911F910F9187
:1001D000FF90EF90DF90CF90BF90AF900895FC011B
:1001E000538D448D252F30E0842F90E0821B930B9C
:1001F000541710F0CF96089501970895FC01918D42
:10020000828D981761F0A28DAE0FBF2FB11D5D9644
:100210008C91928D9F5F9F73928F90E008958FEFE6
:100220009FEF0895FC01918D828D981731F0828D9A
:10023000E80FF11D858D90E008958FEF9FEF0895F1
:10024000FC01918D228D892F90E0805C9F4F821B55
:1002500091098F739927089584E792E00E94200105
:1002600021E0892B09F420E0822F089580E090E0BE
:10027000892B29F00E942C0181110C940000089513
:10028000FC01A48DA80FB92FB11DA35ABF4F2C910B
:10029000848D90E001968F739927848FA689B78902
:1002A0002C93A089B1898C91837080648C93938DF9
:1002B000848D981306C00288F389E02D80818F7D9C
:1002C00080830895EF92FF920F931F93CF93DF9354
:1002D000EC0181E0888F9B8D8C8D98131AC0E88982
:1002E000F989808185FF15C09FB7F894EE89FF8951
:1002F0006083E889F98980818370806480839FBFEF
:1003000081E090E0DF91CF911F910F91FF90EF90EE
:100310000895F62E0B8D10E00F5F1F4F0F731127FE
:10032000E02E8C8D8E110CC00FB607FCFACFE88939
:10033000F989808185FFF5CFCE010E944001F1CF80
:10034000EB8DEC0FFD2FF11DE35AFF4FF0829FB7AD
:10035000F8940B8FEA89FB8980818062CFCFCF939D
:10036000DF93EC01888D8823B9F0AA89BB89E889DD
:10037000F9898C9185FD03C0808186FD0DC00FB683
:1003800007FCF7CF8C9185FFF2CF808185FFEDCF01
:10039000CE010E944001E9CFDF91CF9108958330D3
:1003A00081F028F4813099F08230A9F008958730E7
:1003B000A9F08830C9F08430B1F4809180008F7D3D
:1003C00003C0809180008F7780938000089584B56A
:1003D0008F7784BD089584B58F7DFBCF8091B00069
:1003E0008F778093B00008958091B0008F7DF9CF12
:1003F000CF93DF93282F30E0F901E255FF4F84912E
:10040000F901E656FF4FD491F901EA57FF4FC49125
:10041000CC23A1F081110E94CF01EC2FF0E0EE0F70
:10042000FF1FE458FF4FA591B491EC91ED2381E0BB
:1004300090E009F480E0DF91CF91089580E090E0B2
:10044000FACF1F93CF93DF93282F30E0F901E255C5
:10045000FF4F8491F901E656FF4FD491F901EA5715
:10046000FF4FC491CC23A9F0162F81110E94CF0118
:10047000EC2FF0E0EE0FFF1FEE58FF4FA591B49167
:100480008FB7F894EC91111108C0D095DE23DC935E
:100490008FBFDF91CF911F910895DE2BF8CF2FB73B
:1004A000F89460915E0270915F0280916002909179
:1004B00061022FBF089520910F02260F3327331FAB
:1004C00021323105ECF420913302FC0190E080E010
:1004D000243069F082E00895A0910F022191AC01CF
:1004E00041515E4FA40FB52FB11D2C930196861775
:1004F00098F380910F02680F60930F0280E00895D7
:1005000081E008951092330281E0809335021092C9
:10051000340261E082E10E94210261E083E10E94F5
:100520002102E9EBF0E080818E7F808380818D7FE6
:10053000808388E48093B80085E48093BC000895AC
:100540000895E0916D0280916C02E81730F4F0E0BC
:10055000E753FE4F808190E008958FEF9FEF08955D
:1005600090916D0280916C022FEF3FEF981748F445
:10057000E92FF0E0E753FE4F208130E09F5F90933A
:100580006D02C901089580916C0290916D02891BE2
:10059000990B0895CF93DF93CB01EA01642F0E945A
:1005A0005B02CE01DF91CF910895CF93DF931F922D
:1005B000CDB7DEB7698361E0CE0101960E945B0290
:1005C00081E090E00F90DF91CF91089590E080E07E
:1005D0000895CF92DF92EF92FF920F931F93CF93E4
:1005E000DF93EC01FC01E151FE4F80819181A281FA
:1005F000B381EC81FD8180839183A283B3838E01DB
:100600000D501E4FFE01E551FE4F608171818281C8
:1006100093819B01AC010E94E11320E030E040E8AF
:1006200050E40E9422136B017C01FE01ED51FE4F4C
:10063000DE01A951BE4F2D913D914D915C9160819C
:100640007181828193810E94E01320ED3FE049E4B3
:1006500050E40E9422139B01AC01C701B6010E9425
:100660004D14F80160837183828393830C5F1F4F65
:1006700069897A898B899C89CD88DE88EF88F88C96
:100680006C197D098E099F090E94C11220E030E09B
:100690004AE754E40E944D14F80160837183828319
:1006A0009383DF91CF911F910F91FF90EF90DF9097
:1006B000CF900895CF92DF92EF92FF9280919603B0
:1006C00090919703A0919803B09199038093B301FF
:1006D0009093B401A093B501B093B6018091240327
:1006E0008093B10180911F038093B201E09179035F
:1006F000F0917A0320E030E048EC52E460817181AF
:10070000828193810E9422136B017C0160917503A9
:100710007091760380917703909178030E94C112C3
:100720009B01AC01C701B6010E944D146093B70153
:100730007093B8018093B9019093BA0180918003BE
:100740000E94F80121E0892B09F420E02093BB01ED
:10075000809172028093BC018091330390913403A5
:10076000A0913503B09136038093BD019093BE01F3
:10077000A093BF01B093C0018091370390913803DB
:10078000A0913903B0913A038093C1019093C201C3
:10079000A093C301B093C40180913B0390913C03AB
:1007A000A0913D03B0913E038093C5019093C60193
:1007B000A093C701B093C80140916E0250916F029F
:1007C00061EB71E081E193E0FF90EF90DF90CF90DB
:1007D0000C94CA02FC0101900020E9F73197AF01A7
:1007E000481B590BBC0184E792E00C94C2008F9225
:1007F0009F92AF92BF920F931F93CF93DF93CDB78A
:10080000DEB7A1970FB6F894DEBF0FBECDBF19A219
:10081000423008F44AE08E010F5D1F4F842E912C68
:10082000B12CA12CA50194010E94F814E62FB90166
:10083000CA01EA30F4F4E05DD801EE938D01232B78
:10084000242B252B79F790E080E0109719F0CD014B
:100850000E94EA03A1960FB6F894DEBF0FBECDBF8B
:10086000DF91CF911F910F91BF90AF909F908F908C
:100870000895E95CE1CFCF92DF92EF92FF92CF93A0
:10088000DF936B017C016DE284E792E00E946201DC
:10089000EC0166277727CB016C197D098E099F092A
:1008A0004AE00E94F7038C0F9D1FDF91CF91FF90CC
:1008B000EF90DF90CF9008954F925F926F927F926A
:1008C000AF92BF92CF92DF92EF92FF920F931F935E
:1008D000CF93DF93CDB7DEB72C970FB6F894DEBF7A
:1008E0000FBECDBF69877A878B879C8729013A0124
:1008F000E982FA820B831C8320E030E0A901C30166
:10090000B2010E94BC1287FDB0C020E030E0A90116
:10091000C801B7010E94BC1287FDA7C020E030E0EB
:10092000A901C601B5010E94BC1287FD9EC081E0ED
:1009300020914D0330914E032130310509F080E0C4
:1009400080936E03409233035092340360923503D8
:100950007092360389819A81AB81BC818093370381
:1009600090933803A0933903B0933A03A0923B03CA
:10097000B0923C03C0923D03D0923E03609161036C
:100980007091620380916303909164030E94C1128D
:1009900020E030E04AE754E40E944D146D837E83EA
:1009A0008F83988740923F035092400360924103A7
:1009B000709242039B01AC0169817A818B819C8199
:1009C0000E94221369837A838B839C836093430301
:1009D0007093440380934503909346032D813E8199
:1009E0004F815885C601B5010E944D146B017C01F1
:1009F000C0924703D0924803E0924903F0924A0321
:100A000080914B0390914C03019779F5A3019201DA
:100A100060E070E0CB010E94E01360933F037093AD
:100A20004003809341039093420329813A814B8193
:100A30005C8160E070E0CB010E94E01360934303AF
:100A4000709344038093450390934603A701960156
:100A500060E070E0CB010E94E01360934703709365
:100A600048038093490390934A03E0917B03F091FC
:100A70007C0389859A85AB85BC8580839183A2831D
:100A8000B38380916D03811149C0E0915103F091CE
:100A90005203C080D180E280F380C0925903D0928B
:100AA0005A03E0925B03F0925C03E0914F03F091F4
:100AB000500380819181A281B38180935D039093E3
:100AC0005E03A0935F03B09360034090690350906E
:100AD0006A0360906B0370906C03A3019201C701DD
:100AE000B6010E94EE1418164CF44092590350922D
:100AF0005A0360925B0370925C0310C040906503E0
:100B0000509066036090670370906803A3019201A0
:100B1000C701B6010E94BC1287FDE7CF81E0809338
:100B20006D038AE291E00E94EA03E0917B03F09179
:100B30007C03C080D180E280F380A7019601C701C9
:100B4000B6010E94F3148823E1F08BE391E00E9448
:100B5000EA0387E491E02C960FB6F894DEBF0FBE4F
:100B6000CDBFDF91CF911F910F91FF90EF90DF905C
:100B7000CF90BF90AF907F906F905F904F900C940C
:100B8000EA0326013701E89477F82FEF3FEF4FE7AC
:100B90005FE7C301B2010E94F31481110DC02FEF72
:100BA0003FEF4FE75FE7C301B2010E94BC12181686
:100BB0001CF48FE391E0CBCF2FEF3FEF4FE75FE4E3
:100BC000C701B6010E94EE1418161CF483E491E0EC
:100BD000BECF2FEF3FEF4FE75FECC701B6010E949A
:100BE000BC1287FDF3CF20E030E0A901C701B601B8
:100BF0000E94BC1287FF09C06DE284E792E00E9468
:100C00006201F7FAF094F7F8F0942AE037ED43EA3E
:100C10005BE3C701B6010E94E1132B013C010E9476
:100C2000BF146B017C010E94C1129B01AC01C30186
:100C3000B2010E94E0132B013C014AE0C701B6015A
:100C40000E94F7036EE284E792E00E94620120E0D6
:100C500030E040E251E4C301B2010E9422132B01B3
:100C60003C010E94BF146B01F12CE12C4AE0C7014A
:100C7000B6010E94F703C701B6010E94C1129B0191
:100C8000AC01C301B2010E94E01320E030E040E279
:100C900051E40E9422130E94BF1490E080E04AE0D9
:100CA0000E94F70356CFCF93DF93BC01990F880BB7
:100CB000990B97FF0CC00E943B04EC0187E491E084
:100CC0000E94EA038C0F9D1FDF91CF9108954AE0A7
:100CD0000E94F703F2CFCF93DF930E94EA03EC0167
:100CE00087E491E00E94EA038C0F9D1FDF91CF9172
:100CF0000895AF92BF92CF92DF92EF92FF920F933F
:100D00001F93CF93DF93EC018AE491E00E94EA0302
:100D1000BE01DD0F880B990B97FF36C00E943B0484
:100D200084E591E00E946B0690916C0280916D02C7
:100D3000981709F402C181E193E00E94B002EC012E
:100D4000DD278CE591E00E94EA03CE010E94530664
:100D5000C130D10509F0D6C0CEE9D1E0CE018E591F
:100D6000914030916C0220916D02321789F02091F0
:100D70007002309171028217930754F481E193E07D
:100D80000E94B0028993EACF4AE00E94F703C8CFDD
:100D90008BE691E00E94EA0380919E0190E00E9420
:100DA000530687E791E00E94EA0380919F0190E05B
:100DB0000E94530682E891E00E94EA036091A0013C
:100DC00070E090E080E04AE00E94F70387E491E061
:100DD0000E94EA038091A00181115DC0109273020C
:100DE00010927202A090AD01B090AE01C090AF0120
:100DF000D090B001E090A901F090AA010091AB0160
:100E00001091AC012091A5013091A6014091A7015C
:100E10005091A8016091A1017091A2018091A3015C
:100E20009091A4010E945C0480919E019091240302
:100E3000891779F0882309F44CC08DE891E00E946D
:100E40006B0681E08093240361E0809122030E947D
:100E5000210280919F0190911F03891709F46DC0B1
:100E6000882309F44BC0809172029091730201971C
:100E7000F1F581E080931F0361E080911D03DF9114
:100E8000CF911F910F91FF90EF90DF90CF90BF9087
:100E9000AF900C942102813079F48091720290918C
:100EA0007302019709F281E090E0909373028093BE
:100EB000720210926D03B8CF823009F0B5CF8091E5
:100EC000720290917302029709F4AECF82E090E033
:100ED000ECCF85E991E00E946B061092240360E05C
:100EE000809122030E94210210926D03B2CF809163
:100EF00080030E94F801892B09F0BBCF10921F03D9
:100F000060E0BBCF2297C9F481E193E00E94B00278
:100F100020917202309173022130310571F48823DF
:100F200061F081E08093240361E0809122030E94BC
:100F3000210261E080916F03A2CFDF91CF911F91D9
:100F40000F91FF90EF90DF90CF90BF90AF900895FA
:100F5000CF93DF9385ED8093BC008091EB0190915E
:100F6000EC01A091ED01B091EE010796A11DB11D1C
:100F700023E0B695A795979587952A95D1F7209167
:100F8000BC0024FD03C01092330236C04091EB0137
:100F90005091EC016091ED017091EE01452B462BD3
:100FA000472B69F30097A105B10541F025E32A9588
:100FB000F1F700000197A109B109E1CF8091EA01A1
:100FC00091E09093E9018823B9F0C091B800D091E5
:100FD000BA008091BC008A7B8093BC0060E082E113
:100FE0000E94210260E083E10E9421020E948202AD
:100FF000D093BA00C093B800DF91CF9108951F92AB
:101000000F920FB60F9211242F933F934F935F933C
:101010006F937F938F939F93AF93BF93EF93FF93C0
:1010200084E792E00E944001FF91EF91BF91AF9160
:101030009F918F917F916F915F914F913F912F91F0
:101040000F900FBE0F901F9018951F920F920FB622
:101050000F9211242F938F939F93EF93FF93E0911F
:101060008402F09185028081E0918A02F0918B02E6
:1010700082FD1BC0908180918D028F5F8F732091C4
:101080008E02821741F0E0918D02F0E0EC58FD4FA6
:10109000958F80938D02FF91EF919F918F912F916A
:1010A0000F900FBE0F901F9018958081F4CF1F9264
:1010B0000F920FB60F9211242F933F938F939F930C
:1010C000AF93BF9380915E0290915F02A091600206
:1010D000B091610230915D0223E0230F2D3758F566
:1010E0000196A11DB11D20935D0280935E02909335
:1010F0005F02A0936002B0936102809159029091C7
:101100005A02A0915B02B0915C020196A11DB11D33
:101110008093590290935A02A0935B02B0935C02B1
:10112000BF91AF919F918F913F912F910F900FBEE3
:101130000F901F90189526E8230F0296A11DB11D50
:10114000D2CF1F920F920FB60F9211242F933F937D
:101150004F935F936F937F938F939F93AF93BF93BF
:10116000EF93FF938091B900887F803609F44AC0DD
:10117000F0F5883209F4A7C018F5803109F49BC056
:10118000B8F4882309F4F9C0883009F494C0FF91B9
:10119000EF91BF91AF919F918F917F916F915F91EF
:1011A0004F913F912F910F900FBE0F901F90189568
:1011B000883109F488C0803251F78093320214C01C
:1011C000803409F49DC040F48033B9F38833F9F6D4
:1011D0008093320285ECB0C0803509F485C0883533
:1011E00009F496C0883499F60E94A807D0CF8839B0
:1011F00009F48CC038F5883729F050F4883611F09E
:10120000803729F683E0809333021092310257C071
:10121000883809F47BC0803919F0803809F0B7CFDD
:1012200080913102803208F071C0E091310281E09A
:101230008E0F809331028091BB00F0E0EF5EFD4F96
:1012400080833DC0803B39F0E0F4803A09F479C0F6
:10125000883A09F09CCF84E0809333021092100208
:1012600010920F02E0916802F09169020995809155
:101270000F0281110FC081E080930F021092EF01E5
:1012800009C0803C09F4A6CF883C09F4A3CF883B71
:1012900009F07DCFE091100281E08E0F8093100263
:1012A000F0E0E151FE4F80818093BB0090911002ED
:1012B00080910F0229C0809158028093BB0085EC79
:1012C0008093BC0064CF909157028091560298178A
:1012D00058F5E091570281E08E0F80935702F0E0BD
:1012E000EA5CFD4F8081E9CFE091570281E08E0FEB
:1012F000809357028091BB00F0E0EA5CFD4F808351
:1013000090915702809156029817C8F285E8D8CF7D
:10131000E091570281E08E0F809357028091BB00CD
:10132000F0E0EA5CFD4F80838091350281115CCF53
:1013300081E08093340284EA8093BC0010923302EF
:1013400026CF85EC8093BC0010923302809131024D
:10135000803230F4E0913102F0E0EF5EFD4F108218
:101360006091310270E0E0916602F091670281E1E4
:1013700092E00995109231020ACF1092320234CFD6
:10138000CF93DF9390E0FC01E656FF4F24918A57FC
:101390009F4FFC0184918823D1F090E0880F991F22
:1013A000FC01E859FF4FA591B491FC01EE58FF4FA5
:1013B000C591D49161110EC09FB7F8948C91E22F22
:1013C000E0958E238C932881E223E8839FBFDF91F1
:1013D000CF9108958FB7F894EC91E22BEC938FBFE7
:1013E000F6CF8F929F92AF92BF92CF92DF92EF9201
:1013F000FF920F931F93CF93DF9310927702109277
:10140000760288EE93E0A0E0B0E0809378029093BB
:101410007902A0937A02B0937B022AE031E0309304
:1014200075022093740225EC30E030938102209302
:10143000800224EC30E0309383022093820220EC7F
:1014400030E0309385022093840221EC30E0309329
:1014500087022093860222EC30E0309389022093A9
:10146000880226EC30E030938B0220938A0210929F
:101470008D0210928E0210928F02109290021092A2
:101480001403109213038093150390931603A093F3
:101490001703B09318038CE191E0909312038093AB
:1014A00011031092960310929703109298031092D2
:1014B0009903109282031092830310928403109276
:1014C0008503109287031092860380E090E0AAE7DC
:1014D000B4E48093920390939303A0939403B09306
:1014E000950380E090E0AAEFBEE380938803909399
:1014F0008903A0938A03B0938B038DEC9CECACE43E
:10150000BEE380938C0390938D03A0938E03B093DE
:101510008F038EE090E0909391038093900387E097
:1015200090E0909381038093800360E00E94C00963
:101530000BE213E010935203009351038FE293E008
:101540009093500380934F03C7E2D3E0D0935403AA
:10155000C093530310926D031092650310926603BB
:10156000109267031092680380E090E0AFE7B3E465
:101570008093690390936A03A0936B03B0936C0309
:1015800084E690E0A0E0B0E0809361039093620372
:10159000A0936303B093640310924C0310924B0327
:1015A00081E090E090934E0380934D0380936E030F
:1015B00080E090E0A0E8BFE380933303909334038E
:1015C000A0933503B0933603809337039093380389
:1015D000A0933903B0933A0380933B0390933C0369
:1015E000A0933D03B0933E0380933F039093400349
:1015F000A0934103B09342038DEC9CECACECBDE3B3
:101600008093430390934403A0934503B093460310
:1016100080E090E0A0E2B1E4809347039093480318
:10162000A0934903B0934A030E944F02C090610304
:10163000D0906203E0906303F09064036C197D091D
:101640008E099F0960935503709356038093570347
:10165000909358038DE090E09093700380936F0314
:101660000E944F026093710370937203809373031F
:101670009093740310937A0300937903D0937C03BF
:10168000C0937B0361E080916F030E94C009609169
:1016900075037091760380917703909178030E948F
:1016A000C1126B017C0120E030E0A9010E94BC1254
:1016B00018160CF068C01092650310926603109221
:1016C000670310926803C0926903D0926A03E092A4
:1016D0006B03F0926C0380916D03882309F453C06F
:1016E000C0915103D091520388809980AA80BB8019
:1016F000A5019401C701B6010E94BC1287FF25C055
:10170000C882D982EA82FB828090590390905A0362
:10171000A0905B03B0905C03C0906903D0906A0313
:10172000E0906B03F0906C03A7019601C501B40132
:101730000E94EE141816BCF4C0925903D0925A03BA
:10174000E0925B03F0925C031EC020E030E0A90150
:10175000C501B4010E94BC1287FFD6CF188219823E
:101760001A821B82D1CFC0906503D0906603E090AF
:101770006703F0906803A7019601C501B4010E94B8
:10178000BC1287FDD9CF0E944F0260937103709302
:101790007203809373039093740388EE93E0A0E048
:1017A000B0E08093750390937603A0937703B09392
:1017B00078038BEF91E00E942015EC018FE293E01B
:1017C0009B838A838BE293E09D838C831F861E8696
:1017D00080E090E0A0E0BFE38A879B87AC87BD876D
:1017E000188A7E0185E1E81A8EEFF80A80E090E021
:1017F000A0EFB1E4F70180839183A283B38388E2F1
:1018000090E098A38F8F0AEF10E01E8F0D8F0E943B
:101810004F02698F7A8F8B8F9C8FD0937E03C093FA
:101820007D0380E090E0A0E8BFE38A879B87AC87D8
:10183000BD8780E090E0A8E4B2E4F7018083918363
:10184000A283B38380E590E098A38F8F1E8F0D8FC6
:1018500080E090E0A8ECB2E480932B0390932C03FB
:10186000A0932D03B0932E0389E090E0909323037F
:10187000809322031092240384E293E09093260342
:101880008093250361E089E00E94C0098CE090E02C
:1018900090931E0380931D0310921F038FE193E02A
:1018A000909321038093200361E08CE0DF91CF913E
:1018B0001F910F91FF90EF90DF90CF90BF90AF906E
:1018C0009F908F900C94C009CF93DF93CDB7DEB774
:1018D0002F970FB6F894DEBF0FBECDBF789484B5B6
:1018E000826084BD84B5816084BD85B5826085BD1C
:1018F00085B5816085BD80916E00816080936E00AA
:10190000109281008091810082608093810080919B
:10191000810081608093810080918000816080934C
:1019200080008091B10084608093B1008091B0000C
:1019300081608093B00080917A00846080937A0007
:1019400080917A00826080937A0080917A00816031
:1019500080937A0080917A00806880937A00109258
:10196000C10083E190E0909371028093700288E15E
:1019700090E090936F0280936E02E0918402F09168
:10198000850282E08083E0918002F09181021082E2
:10199000E0918202F09183028FEC808310928C029E
:1019A000E0918802F091890286E08083E0918602CE
:1019B000F0918702808180618083E0918602F091BE
:1019C0008702808188608083E0918602F09187029F
:1019D000808180688083E0918602F0918702808117
:1019E0008F7D808310926D0210926C0210926B02B8
:1019F00010926A020E9482028CE890E09093690241
:101A00008093680288E990E0909367028093660271
:101A100080E18093BA0089E796E090936502809315
:101A200064028AE593E090936302809362020E94CD
:101A30004F0200919A0310919B0320919C033091D7
:101A40009D03601B710B820B930B0E94C1122091AE
:101A500092033091930340919403509195030E9417
:101A6000BC1287FF6DC0809190038E3008F08E50BD
:101A70008770806480937C0080917A00806480937A
:101A80007A0080917A0086FDFCCF80917800609189
:101A90007900762F682F072E000C880B990B0E9477
:101AA000C312209188033091890340918A03509199
:101AB0008B030E9422132091820330918303409173
:101AC0008403509185030E94E11360938203709315
:101AD0008303809384039093850380918603909180
:101AE0008703019690938703809386036091960302
:101AF00070919703809198039091990360932F03BD
:101B000070933003809331039093320320E030E0F0
:101B100040EF52E40E94EE1418160CF06CC060E026
:101B20008DE00E94210240E050E0452B09F47FCF78
:101B30000E942C01882309F47ACF0E94000077CFFD
:101B4000C0908C03D0908D03E0908E03F0908F03B3
:101B50006091860370918703072E000C880B990B08
:101B60000E94C3129B01AC016091820370918303B8
:101B700080918403909185030E944D14A7019601E2
:101B80000E9422134B015C01A701960160E070E006
:101B900080E89FE30E94E013209196033091970321
:101BA00040919803509199030E9422139B01AC012C
:101BB000C501B4010E94E1136093960370939703EB
:101BC0008093980390939903109282031092830359
:101BD000109284031092850310928703109286035B
:101BE0000E944F0260939A0370939B0380939C031F
:101BF00090939D037BCF809172029091730220910C
:101C00002403222309F4A4C1009709F0A1C1809103
:101C10006D03882309F428C10E944F026E837F83DD
:101C2000888799878091550390915603A091570317
:101C3000B09158034E815F8168857985481B590BA7
:101C40006A0B7B0B8091610390916203A091630307
:101C5000B0916403481759076A077B0708F404C169
:101C6000E0914F03F09150032081318142815381F3
:101C700029833A834B835C83E0915303F0915403AF
:101C800060817181828193810E94E0134B015C012C
:101C900020915D0330915E0340915F03509160039A
:101CA00069817A818B819C810E94E0136B017C01A8
:101CB00020914303309144034091450350914603E2
:101CC000C501B4010E9422132091590330915A0397
:101CD00040915B0350915C030E94E1132B013C0196
:101CE0004092590350925A0360925B0370925C03D6
:101CF00030906E0331101AC020913F0330914003A1
:101D00004091410350914203C701B6010E94221342
:101D10009B01AC01C301B2010E94E013609359031F
:101D200070935A0380935B0390935C034090590334
:101D300050905A0360905B0370905C0310916903AC
:101D400000916A0330916B033E8740916C034D8391
:101D5000212F302F4E855D81C301B2010E94EE1408
:101D600018160CF0D0C0812F902FAE85BD818093C6
:101D7000590390935A03A0935B03B0935C03332001
:101D800009F4E2C020913F033091400340914103A8
:101D900050914203C501B4010E9422134B015C0122
:101DA00020914703309148034091490350914A03E1
:101DB000C701B6010E9422139B01AC016091590337
:101DC00070915A0380915B0390915C030E94E01331
:101DD000A50194010E94E1136B017C019B01AC0100
:101DE000612F702F8E859D810E94BC1287FD18C0C7
:101DF0001091650300916603309167033E8740911F
:101E000068034D83212F302F4E855D81B601C701B8
:101E10000E94BC1287FD04C01C2D0D2DEE86FD8294
:101E2000E0915103F0915203812F902FAE85BD8137
:101E300080839183A283B38389819A81AB81BC81A2
:101E400080935D0390935E03A0935F03B093600360
:101E50002E813F8148855985209355033093560341
:101E600040935703509358030E944F02009171030F
:101E7000109172032091730330917403C090750325
:101E8000D0907603E0907703F09078034B015C01EB
:101E9000801A910AA20AB30AC814D904EA04FB04FE
:101EA00060F40C0D1D1D2E1D3F1D0093710310933A
:101EB0007203209373033093740310916F03409166
:101EC000790350917A035A834983C0907103D0906B
:101ED0007203E0907303F09074036C197D098E090E
:101EE0009F090E94C1129B01AC01A981BA816D9129
:101EF0007D918D919C910E94EE1461E018160CF07A
:101F000060E0812F0ECE8091650390916603A091D1
:101F10006703B09168038A879B87AC87BD879C0164
:101F2000AD01C301B2010E94BC1287FF28CF2A85F0
:101F30003B854C855D852093590330935A0340932C
:101F40005B0350935C031BCF812C912C540128CF51
:101F5000029709F0E8CDE0917D03F0917E03FF87C1
:101F6000EE878F010E511E4FD8011C921F01B1E266
:101F70002B1ABEEF3B0AF101808191810A978CF008
:101F8000AE85BF8550968C915097882351F050961E
:101F90001C925097CD010E94E90231E030937F03FB
:101FA000C8C20E944F026A877B878C879D87EE8517
:101FB000FF85818D928DA38DB48D4A855B856C855F
:101FC0007D85481B590B6A0B7B0B858D968D092EE1
:101FD000000CAA0BBB0B481759076A077B0708F4CC
:101FE0004CC22A853B854C855D85DF01218F328F70
:101FF000438F548F0280F381E02DC080D180E28036
:10200000F38021E0F801208350968C915097AD51D8
:10201000BE4FBA83A9834E855F8549515E4F5F836A
:102020004E838111C6C0AE85BF8592961C921E92CA
:102030009197F10111821082FD01EF51FE4F108244
:10204000A981BA81CD92DD92ED92FC921397FA01AB
:10205000C082D182E282F382AE85BF851696CD9290
:10206000DD92ED92FC92199750962C93509714960E
:102070000D911C911597F801208131814281538186
:10208000FD01E151FE4F2083318342835383349716
:1020900060817181828193810E94E113D8016D93E7
:1020A0007D938D939C931397EE85FF858680978013
:1020B000A084B1844284538464847584A301920112
:1020C000C501B4010E94E1139B01AC01C701B60137
:1020D0000E94EE1418160CF093C0AE85BF851496BE
:1020E0000D911C911597FD01E551FE4F2081318125
:1020F00042815381349660817181828193810E94F3
:10210000E013F8016083718382839383E1E0AE85FD
:10211000BF85EC93F1E01196FC9311975F966D905B
:102120007C909097230121E0421A51088301000F0F
:10213000111F000F111F0A0F1B1F57FC84C0D8016D
:102140005F968D909D90AD90BC909297EE85FF85A7
:102150008081882379F0F1E0FD83A5019401C70116
:10216000B6010E94EE1418160CF01D82ED81AE85AA
:10217000BF85EC93AE85BF8511968C91882361F065
:10218000A5019401C701B6010E94BC12881F8827CF
:10219000881FEE85FF858183D80193968D929D924D
:1021A000AD92BC929697B1E04B1A510804501109B8
:1021B000C4CFE981FA812081318142815381C701F5
:1021C000B6010E94EE1418163CF4A981BA81CD9292
:1021D000DD92ED92FC921397EE81FF812081318197
:1021E00042815381C701B6010E94BC1287FF5CCFB8
:1021F000AE81BF81CD92DD92ED92FC92139754CFC8
:10220000A3019201C501B4010E94E0139B01AC013E
:10221000C701B6010E94BC1287FF78CFAE85BF858B
:1022200014960D911C911597FD01E551FE4F2081EB
:1022300031814281538134966081718182819381A1
:102240000E94E1135ECFEE85FF85C3A2D4A2E5A272
:10225000F6A2F9E06F1671040CF40FC1AE85BF85CC
:102260008C918D010F511E4F882309F444C0919623
:102270008D919C919297892B31F4E1E0F0E0929658
:10228000FC93EE939197AE85BF8591968D919C912D
:10229000019699F421E030E0EE85FF8532A321A379
:1022A000E1E0D801EC93EE85FF8581899289A389CD
:1022B000B489858B968BA78BB08F2A853B854C85FF
:1022C0005D85AE85BF8551962D933D934D935C936F
:1022D0005497D101ED91FC91EE0FFF1FEE0FFF1F00
:1022E0002E853F85E20FF31FE954FE4FC082D18255
:1022F000E282F38230C0AE85BF8511968C91119732
:10230000882349F191968D919C919297892B31F474
:10231000EFEFFFEF9296FC93EE939197AE85BF851A
:1023200091968D919C919297019779F4F10180811A
:1023300091812FEF3FEF92963C932E9391970196C8
:1023400091838083E1E0D801EC93D101ED91FC9180
:10235000EA30F1050CF2D8018C91882309F48BC086
:10236000F101E080F180F3E0EF16F1040CF483C09A
:10237000F7013297EE0FFF1FEE0FFF1F2E853F85EF
:10238000E20FF31FE954FE4F40805180628073805A
:10239000F7013197EE0FFF1FEE0FFF1FE20FF31F44
:1023A000E954FE4FA3019201608171818281938182
:1023B0000E94E0134B015C0120E030E0A9010E9483
:1023C000EE14181624F0B7FAB094B7F8B094F701E9
:1023D0003397EE0FFF1FEE0FFF1F4E855F85E40F53
:1023E000F51FE954FE4F2081318142815381C301A1
:1023F000B2010E94E0136B017C0120E030E0A901F2
:102400000E94EE14181624F0F7FAF094F7F8F094FE
:10241000A7019601C501B4010E94E11320E030E05C
:1024200040E05FE30E9422136B017C01AE81BF811B
:102430002D913D914D915C91E981FA81608171818D
:10244000828193810E94E0132DEC3CEC4CE45DE32F
:102450000E9422139B01AC01C701B6010E94BC126D
:1024600087FF09C08E859F850E94E902AE85BF85E2
:1024700050961C9292CDF8011082E0917D03F0916C
:102480007E03DF01AD50BE4F2D913D914D915C918A
:10249000139729833A834B835C8314964D905D9008
:1024A0006D907C9086859785019709F047C02AE951
:1024B00039E949E95DE369817A818B819C810E94D8
:1024C0002213A30192010E9422135B016C012AE9ED
:1024D00039E949E95FE369817A818B819C810E94B6
:1024E0002213A30192010E944D142B013C012AE901
:1024F00039E949E15FE369817A818B819C810E949E
:102500002213E0917B03F0917C0320813181428191
:10251000538129833A834B835C83830172019B013E
:10252000AC0169817A818B819C810E945C0410924C
:102530007F031092730210927202F5CA2FE832ECF8
:1025400045EF5EE369817A818B819C810E94221331
:10255000A30192010E944D142B013C012DEC3CEC97
:102560004CEC5EE369817A818B819C810E9422130D
:10257000A12CB12C6501C5CF0E94FE1208F481E0A8
:102580000895E89409C097FB3EF490958095709566
:1025900061957F4F8F4F9F4F9923A9F0F92F96E9AF
:1025A000BB279395F695879577956795B795F11124
:1025B000F8CFFAF4BB0F11F460FF1BC06F5F7F4FC1
:1025C0008F4F9F4F16C0882311F096E911C07723D3
:1025D00021F09EE8872F762F05C0662371F096E8DC
:1025E000862F70E060E02AF09A95660F771F881FAB
:1025F000DAF7880F9695879597F90895990F00084F
:10260000550FAA0BE0E8FEEF16161706E807F907C4
:10261000C0F012161306E407F50798F0621B730B5F
:10262000840B950B39F40A2661F0232B242B252BE0
:1026300021F408950A2609F4A140A6958FEF811D83
:10264000811D08950E9435130C94A6130E949813BF
:1026500038F00E949F1320F0952311F00C948F13F3
:102660000C94951311240C94DA130E94B71370F391
:10267000959FC1F3950F50E0551F629FF001729F27
:10268000BB27F00DB11D639FAA27F00DB11DAA1F36
:10269000649F6627B00DA11D661F829F2227B00D83
:1026A000A11D621F739FB00DA11D621F839FA00D0E
:1026B000611D221F749F3327A00D611D231F849F5E
:1026C000600D211D822F762F6A2F11249F575040B5
:1026D0009AF0F1F088234AF0EE0FFF1FBB1F661F30
:1026E000771F881F91505040A9F79E3F510580F0F9
:1026F0000C948F130C94DA135F3FE4F3983ED4F3F9
:10270000869577956795B795F795E7959F5FC1F79C
:10271000FE2B880F911D9695879597F9089597F947
:102720009F6780E870E060E008959FEF80EC089577
:1027300000240A94161617061806090608950024A0
:102740000A9412161306140605060895092E03941A
:10275000000C11F4882352F0BB0F40F4BF2B11F48E
:1027600060FF04C06F5F7F4F8F4F9F4F089557FDED
:102770009058440F551F59F05F3F71F04795880FEF
:1027800097FB991F61F09F3F79F087950895121686
:1027900013061406551FF2CF4695F1DF08C0161632
:1027A00017061806991FF1CF8695710561050894E3
:1027B0000895E894BB2766277727CB0197F90895FA
:1027C0005058BB27AA270E94F8130C94A6130E9406
:1027D000981338F00E949F1320F039F49F3F19F4AA
:1027E00026F40C9495130EF4E095E7FB0C948F13EC
:1027F000E92F0E94B71358F3BA17620773078407CB
:10280000950720F079F4A6F50C94D9130EF4E09511
:102810000B2EBA2FA02D0B01B90190010C01CA019A
:10282000A0011124FF27591B99F0593F50F4503E45
:1028300068F11A16F040A22F232F342F4427585F37
:10284000F3CF469537952795A795F0405395C9F74F
:102850007EF41F16BA0B620B730B840BBAF0915007
:10286000A1F0FF0FBB1F661F771F881FC2F70EC0A6
:10287000BA0F621F731F841F48F487957795679579
:10288000B795F7959E3F08F0B0CF9395880F08F065
:102890009927EE0F9795879508950E9461140C94DF
:1028A000A6130E949F1358F00E94981340F029F439
:1028B0005F3F29F00C948F1351110C94DA130C9490
:1028C00095130E94B71368F39923B1F3552391F33D
:1028D000951B550BBB27AA2762177307840738F08F
:1028E0009F5F5F4F220F331F441FAA1FA9F335D0EC
:1028F0000E2E3AF0E0E832D091505040E695001CA0
:10290000CAF72BD0FE2F29D0660F771F881FBB1F59
:10291000261737074807AB07B0E809F0BB0B802D37
:10292000BF01FF2793585F4F3AF09E3F510578F063
:102930000C948F130C94DA135F3FE4F3983ED4F3B6
:10294000869577956795B795F7959F5FC9F7880F37
:10295000911D9695879597F90895E1E0660F771F89
:10296000881FBB1F621773078407BA0720F0621B1A
:10297000730B840BBA0BEE1F88F7E09508950E9445
:10298000BF1388F09F5798F0B92F9927B751B0F02F
:10299000E1F0660F771F881F991F1AF0BA95C9F7E3
:1029A00014C0B13091F00E94D913B1E008950C9495
:1029B000D913672F782F8827B85F39F0B93FCCF348
:1029C000869577956795B395D9F73EF49095809560
:1029D000709561957F4F8F4F9F4F08950E94FE1213
:1029E00008F48FEF08950E94FE12880B990B08954A
:1029F000A1E21A2EAA1BBB1BFD010DC0AA1FBB1F03
:102A0000EE1FFF1FA217B307E407F50720F0A21B74
:102A1000B30BE40BF50B661F771F881F991F1A94E1
:102A200069F760957095809590959B01AC01BD010B
:102A3000CF010895EE0FFF1F0590F491E02D09944A
:102A40000F931F93CF93DF938230910510F482E0B0
:102A500090E0E091A003F091A10330E020E0B0E02D
:102A6000A0E0309799F42115310509F44AC0281BDC
:102A7000390B24303105D8F58A819B8161157105A8
:102A800089F1FB0193838283FE0111C04081518152
:102A90000281138148175907E0F04817590799F444
:102AA000109761F012960C93129713961C9332961E
:102AB000CF01DF91CF911F910F9108950093A00353
:102AC0001093A103F4CF2115310551F0421753079C
:102AD00038F0A901DB019A01BD01DF01F801C1CF86
:102AE000EF01F9CF9093A1038093A003CDCFFE0116
:102AF000E20FF31F81939193225031093983288388
:102B0000D7CF20919E0330919F03232B41F4209136
:102B100002013091030130939F0320939E03209183
:102B20000001309101012115310541F42DB73EB767
:102B30004091040150910501241B350BE0919E0347
:102B4000F0919F03E217F307A0F42E1B3F0B281709
:102B5000390778F0AC014E5F5F4F2417350748F016
:102B60004E0F5F1F50939F0340939E038193919359
:102B70009FCFF0E0E0E09CCFCF93DF930097E9F0A8
:102B8000FC01329713821282A091A003B091A1039D
:102B9000ED0130E020E01097A1F420813181820F17
:102BA000931F20919E0330919F032817390709F046
:102BB00061C0F0939F03E0939E03DF91CF9108954E
:102BC000EA01CE17DF07E8F54A815B819E014115D6
:102BD0005105B1F7E901FB83EA8349915991C40F8B
:102BE000D51FEC17FD0761F4808191810296840F57
:102BF000951FE90199838883828193819B838A83CE
:102C0000F0E0E0E012968D919C9113970097B9F552
:102C10002D913C911197CD010296820F931F209127
:102C20009E0330919F032817390739F6309751F5E5
:102C30001092A1031092A003B0939F03A0939E0350
:102C4000BCCFD383C28340815181840F951FC817A5
:102C5000D90761F44E5F5F4F88819981480F591FF2
:102C6000518340838A819B8193838283211531051F
:102C700009F0B0CFF093A103E093A0039ECFFD0134
:0E2C8000DC01C0CF13821282D7CFF894FFCFB1
:102C8E000000A2038000000000006201C200EF00FD
:102C9E00AF012001FE00120100000000D502CA02A1
:102CAE00E602A002C302B002A102504944206F6E98
:102CBE002C207461726765743A20006E616E006933
:102CCE006E66006F7666000D0A0052656365697662
:102CDE00656420002062797465732E002020202008
:102CEE0052656769737465723A2000202020205067
:102CFE006F7765723A200020202020427265773A65
:102D0E002000202020204D6F64653A2000547572FB
:0E2D1E006E206F6E005475726E206F66660038
:00000001FF
